{
  "_format": "hh-sol-artifact-1",
  "contractName": "LotteryReceiver",
  "sourceName": "contracts/LotteryReceiver.sol",
  "abi": [
    {
      "inputs": [
        {
          "internalType": "address",
          "name": "router",
          "type": "address"
        }
      ],
      "stateMutability": "nonpayable",
      "type": "constructor"
    },
    {
      "inputs": [
        {
          "internalType": "address",
          "name": "router",
          "type": "address"
        }
      ],
      "name": "InvalidRouter",
      "type": "error"
    },
    {
      "inputs": [
        {
          "internalType": "address",
          "name": "sender",
          "type": "address"
        }
      ],
      "name": "SenderNotWhitelisted",
      "type": "error"
    },
    {
      "inputs": [
        {
          "internalType": "uint64",
          "name": "sourceChainSelector",
          "type": "uint64"
        }
      ],
      "name": "SourceChainNotWhitelisted",
      "type": "error"
    },
    {
      "anonymous": false,
      "inputs": [
        {
          "indexed": true,
          "internalType": "address",
          "name": "from",
          "type": "address"
        },
        {
          "indexed": true,
          "internalType": "address",
          "name": "to",
          "type": "address"
        }
      ],
      "name": "OwnershipTransferRequested",
      "type": "event"
    },
    {
      "anonymous": false,
      "inputs": [
        {
          "indexed": true,
          "internalType": "address",
          "name": "from",
          "type": "address"
        },
        {
          "indexed": true,
          "internalType": "address",
          "name": "to",
          "type": "address"
        }
      ],
      "name": "OwnershipTransferred",
      "type": "event"
    },
    {
      "inputs": [],
      "name": "acceptOwnership",
      "outputs": [],
      "stateMutability": "nonpayable",
      "type": "function"
    },
    {
      "inputs": [
        {
          "components": [
            {
              "internalType": "bytes32",
              "name": "messageId",
              "type": "bytes32"
            },
            {
              "internalType": "uint64",
              "name": "sourceChainSelector",
              "type": "uint64"
            },
            {
              "internalType": "bytes",
              "name": "sender",
              "type": "bytes"
            },
            {
              "internalType": "bytes",
              "name": "data",
              "type": "bytes"
            },
            {
              "components": [
                {
                  "internalType": "address",
                  "name": "token",
                  "type": "address"
                },
                {
                  "internalType": "uint256",
                  "name": "amount",
                  "type": "uint256"
                }
              ],
              "internalType": "struct Client.EVMTokenAmount[]",
              "name": "destTokenAmounts",
              "type": "tuple[]"
            }
          ],
          "internalType": "struct Client.Any2EVMMessage",
          "name": "message",
          "type": "tuple"
        }
      ],
      "name": "ccipReceive",
      "outputs": [],
      "stateMutability": "nonpayable",
      "type": "function"
    },
    {
      "inputs": [
        {
          "internalType": "address",
          "name": "_sender",
          "type": "address"
        }
      ],
      "name": "denySender",
      "outputs": [],
      "stateMutability": "nonpayable",
      "type": "function"
    },
    {
      "inputs": [
        {
          "internalType": "uint64",
          "name": "_sourceChainSelector",
          "type": "uint64"
        }
      ],
      "name": "denylistSourceChain",
      "outputs": [],
      "stateMutability": "nonpayable",
      "type": "function"
    },
    {
      "inputs": [],
      "name": "getRouter",
      "outputs": [
        {
          "internalType": "address",
          "name": "",
          "type": "address"
        }
      ],
      "stateMutability": "view",
      "type": "function"
    },
    {
      "inputs": [],
      "name": "latestMessage",
      "outputs": [
        {
          "internalType": "string",
          "name": "",
          "type": "string"
        }
      ],
      "stateMutability": "view",
      "type": "function"
    },
    {
      "inputs": [],
      "name": "latestSender",
      "outputs": [
        {
          "internalType": "address",
          "name": "",
          "type": "address"
        }
      ],
      "stateMutability": "view",
      "type": "function"
    },
    {
      "inputs": [],
      "name": "owner",
      "outputs": [
        {
          "internalType": "address",
          "name": "",
          "type": "address"
        }
      ],
      "stateMutability": "view",
      "type": "function"
    },
    {
      "inputs": [
        {
          "internalType": "bytes4",
          "name": "interfaceId",
          "type": "bytes4"
        }
      ],
      "name": "supportsInterface",
      "outputs": [
        {
          "internalType": "bool",
          "name": "",
          "type": "bool"
        }
      ],
      "stateMutability": "pure",
      "type": "function"
    },
    {
      "inputs": [
        {
          "internalType": "address",
          "name": "to",
          "type": "address"
        }
      ],
      "name": "transferOwnership",
      "outputs": [],
      "stateMutability": "nonpayable",
      "type": "function"
    },
    {
      "inputs": [
        {
          "internalType": "address",
          "name": "_sender",
          "type": "address"
        }
      ],
      "name": "whitelistSender",
      "outputs": [],
      "stateMutability": "nonpayable",
      "type": "function"
    },
    {
      "inputs": [
        {
          "internalType": "uint64",
          "name": "_sourceChainSelector",
          "type": "uint64"
        }
      ],
      "name": "whitelistSourceChain",
      "outputs": [],
      "stateMutability": "nonpayable",
      "type": "function"
    },
    {
      "inputs": [
        {
          "internalType": "address",
          "name": "",
          "type": "address"
        }
      ],
      "name": "whitelistedSenders",
      "outputs": [
        {
          "internalType": "bool",
          "name": "",
          "type": "bool"
        }
      ],
      "stateMutability": "view",
      "type": "function"
    },
    {
      "inputs": [
        {
          "internalType": "uint64",
          "name": "",
          "type": "uint64"
        }
      ],
      "name": "whitelistedSourceChains",
      "outputs": [
        {
          "internalType": "bool",
          "name": "",
          "type": "bool"
        }
      ],
      "stateMutability": "view",
      "type": "function"
    }
  ],
  "bytecode": "0x60a060405234801561001057600080fd5b5060405161111238038061111283398101604081905261002f916101a1565b33806000836001600160a01b038116610063576040516335fdcccd60e21b8152600060048201526024015b60405180910390fd5b6001600160a01b0390811660805282166100bf5760405162461bcd60e51b815260206004820152601860248201527f43616e6e6f7420736574206f776e657220746f207a65726f0000000000000000604482015260640161005a565b600080546001600160a01b0319166001600160a01b03848116919091179091558116156100ef576100ef816100f8565b505050506101d1565b336001600160a01b038216036101505760405162461bcd60e51b815260206004820152601760248201527f43616e6e6f74207472616e7366657220746f2073656c66000000000000000000604482015260640161005a565b600180546001600160a01b0319166001600160a01b0383811691821790925560008054604051929316917fed8889f560326eb138920d842192f0eb3dd22b4f139c87a2c57538e05bae12789190a350565b6000602082840312156101b357600080fd5b81516001600160a01b03811681146101ca57600080fd5b9392505050565b608051610f1f6101f36000396000818161021c01526105560152610f1f6000f3fe608060405234801561001057600080fd5b50600436106100ea5760003560e01c806385572ffb1161008c578063a32ba7ec11610066578063a32ba7ec14610207578063b0f479a11461021a578063e121481514610240578063f2fde38b1461026057600080fd5b806385572ffb146101a25780638da5cb5b146101b557806392a8c1fe146101f457600080fd5b806334a07798116100c857806334a077981461014f5780637736035b1461016457806379ba5097146101775780637dc91a021461017f57600080fd5b806301ffc9a7146100ef578063272efc69146101175780632f10a6c61461013a575b600080fd5b6101026100fd366004610869565b610273565b60405190151581526020015b60405180910390f35b6101026101253660046108d4565b60056020526000908152604090205460ff1681565b61014d6101483660046108d4565b61030c565b005b610157610363565b60405161010e9190610915565b61014d610172366004610983565b6103f1565b61014d61043c565b61010261018d366004610983565b60046020526000908152604090205460ff1681565b61014d6101b036600461099e565b61053e565b60005473ffffffffffffffffffffffffffffffffffffffff165b60405173ffffffffffffffffffffffffffffffffffffffff909116815260200161010e565b61014d6102023660046108d4565b6105c3565b61014d610215366004610983565b610617565b7f00000000000000000000000000000000000000000000000000000000000000006101cf565b6002546101cf9073ffffffffffffffffffffffffffffffffffffffff1681565b61014d61026e3660046108d4565b61065f565b60007fffffffff0000000000000000000000000000000000000000000000000000000082167f85572ffb00000000000000000000000000000000000000000000000000000000148061030657507fffffffff0000000000000000000000000000000000000000000000000000000082167f01ffc9a700000000000000000000000000000000000000000000000000000000145b92915050565b610314610670565b73ffffffffffffffffffffffffffffffffffffffff16600090815260056020526040902080547fffffffffffffffffffffffffffffffffffffffffffffffffffffffffffffff00166001179055565b60038054610370906109d9565b80601f016020809104026020016040519081016040528092919081815260200182805461039c906109d9565b80156103e95780601f106103be576101008083540402835291602001916103e9565b820191906000526020600020905b8154815290600101906020018083116103cc57829003601f168201915b505050505081565b6103f9610670565b67ffffffffffffffff16600090815260046020526040902080547fffffffffffffffffffffffffffffffffffffffffffffffffffffffffffffff00166001179055565b60015473ffffffffffffffffffffffffffffffffffffffff1633146104c2576040517f08c379a000000000000000000000000000000000000000000000000000000000815260206004820152601660248201527f4d7573742062652070726f706f736564206f776e65720000000000000000000060448201526064015b60405180910390fd5b60008054337fffffffffffffffffffffffff00000000000000000000000000000000000000008083168217845560018054909116905560405173ffffffffffffffffffffffffffffffffffffffff90921692909183917f8be0079c531659141344cd1fd0a4f28419497f9722a3daafe3b4186f6b6457e091a350565b3373ffffffffffffffffffffffffffffffffffffffff7f000000000000000000000000000000000000000000000000000000000000000016146105af576040517fd7f733340000000000000000000000000000000000000000000000000000000081523360048201526024016104b9565b6105c06105bb82610c3f565b6106f3565b50565b6105cb610670565b73ffffffffffffffffffffffffffffffffffffffff16600090815260056020526040902080547fffffffffffffffffffffffffffffffffffffffffffffffffffffffffffffff00169055565b61061f610670565b67ffffffffffffffff16600090815260046020526040902080547fffffffffffffffffffffffffffffffffffffffffffffffffffffffffffffff00169055565b610667610670565b6105c081610774565b60005473ffffffffffffffffffffffffffffffffffffffff1633146106f1576040517f08c379a000000000000000000000000000000000000000000000000000000000815260206004820152601660248201527f4f6e6c792063616c6c61626c65206279206f776e65720000000000000000000060448201526064016104b9565b565b806040015180602001905181019061070b9190610cec565b600260006101000a81548173ffffffffffffffffffffffffffffffffffffffff021916908373ffffffffffffffffffffffffffffffffffffffff16021790555080606001518060200190518101906107639190610d09565b6003906107709082610dcf565b5050565b3373ffffffffffffffffffffffffffffffffffffffff8216036107f3576040517f08c379a000000000000000000000000000000000000000000000000000000000815260206004820152601760248201527f43616e6e6f74207472616e7366657220746f2073656c6600000000000000000060448201526064016104b9565b600180547fffffffffffffffffffffffff00000000000000000000000000000000000000001673ffffffffffffffffffffffffffffffffffffffff83811691821790925560008054604051929316917fed8889f560326eb138920d842192f0eb3dd22b4f139c87a2c57538e05bae12789190a350565b60006020828403121561087b57600080fd5b81357fffffffff00000000000000000000000000000000000000000000000000000000811681146108ab57600080fd5b9392505050565b73ffffffffffffffffffffffffffffffffffffffff811681146105c057600080fd5b6000602082840312156108e657600080fd5b81356108ab816108b2565b60005b8381101561090c5781810151838201526020016108f4565b50506000910152565b60208152600082518060208401526109348160408501602087016108f1565b601f017fffffffffffffffffffffffffffffffffffffffffffffffffffffffffffffffe0169190910160400192915050565b803567ffffffffffffffff8116811461097e57600080fd5b919050565b60006020828403121561099557600080fd5b6108ab82610966565b6000602082840312156109b057600080fd5b813567ffffffffffffffff8111156109c757600080fd5b820160a081850312156108ab57600080fd5b600181811c908216806109ed57607f821691505b602082108103610a26577f4e487b7100000000000000000000000000000000000000000000000000000000600052602260045260246000fd5b50919050565b7f4e487b7100000000000000000000000000000000000000000000000000000000600052604160045260246000fd5b6040805190810167ffffffffffffffff81118282101715610a7e57610a7e610a2c565b60405290565b60405160a0810167ffffffffffffffff81118282101715610a7e57610a7e610a2c565b604051601f82017fffffffffffffffffffffffffffffffffffffffffffffffffffffffffffffffe016810167ffffffffffffffff81118282101715610aee57610aee610a2c565b604052919050565b600067ffffffffffffffff821115610b1057610b10610a2c565b50601f017fffffffffffffffffffffffffffffffffffffffffffffffffffffffffffffffe01660200190565b600082601f830112610b4d57600080fd5b8135610b60610b5b82610af6565b610aa7565b818152846020838601011115610b7557600080fd5b816020850160208301376000918101602001919091529392505050565b600082601f830112610ba357600080fd5b8135602067ffffffffffffffff821115610bbf57610bbf610a2c565b610bcd818360051b01610aa7565b82815260069290921b84018101918181019086841115610bec57600080fd5b8286015b84811015610c345760408189031215610c095760008081fd5b610c11610a5b565b8135610c1c816108b2565b81528185013585820152835291830191604001610bf0565b509695505050505050565b600060a08236031215610c5157600080fd5b610c59610a84565b82358152610c6960208401610966565b6020820152604083013567ffffffffffffffff80821115610c8957600080fd5b610c9536838701610b3c565b60408401526060850135915080821115610cae57600080fd5b610cba36838701610b3c565b60608401526080850135915080821115610cd357600080fd5b50610ce036828601610b92565b60808301525092915050565b600060208284031215610cfe57600080fd5b81516108ab816108b2565b600060208284031215610d1b57600080fd5b815167ffffffffffffffff811115610d3257600080fd5b8201601f81018413610d4357600080fd5b8051610d51610b5b82610af6565b818152856020838501011115610d6657600080fd5b610d778260208301602086016108f1565b95945050505050565b601f821115610dca57600081815260208120601f850160051c81016020861015610da75750805b601f850160051c820191505b81811015610dc657828155600101610db3565b5050505b505050565b815167ffffffffffffffff811115610de957610de9610a2c565b610dfd81610df784546109d9565b84610d80565b602080601f831160018114610e505760008415610e1a5750858301515b7fffffffffffffffffffffffffffffffffffffffffffffffffffffffffffffffff600386901b1c1916600185901b178555610dc6565b6000858152602081207fffffffffffffffffffffffffffffffffffffffffffffffffffffffffffffffe08616915b82811015610e9d57888601518255948401946001909101908401610e7e565b5085821015610ed957878501517fffffffffffffffffffffffffffffffffffffffffffffffffffffffffffffffff600388901b60f8161c191681555b5050505050600190811b0190555056fea2646970667358221220d7cc278df589d591f4e23fa08ef35a24f0cfc6babbea97bdc0b3fad1b6edbf5a64736f6c63430008110033",
  "linkReferences": {},
  "deployedLinkReferences": {}
}