{"contracts/libraries/BTCLCoreFixed.sol":{"BTCLCoreFixed":{"abi":[{"inputs":[],"name":"INVALID_VRF_REQUEST","type":"error"},{"inputs":[],"name":"LOTTERY_PAUSED","type":"error"},{"inputs":[],"name":"PRIZE_ALREADY_CLAIMED","type":"error"},{"inputs":[],"name":"ROUND_NOT_FINISHED","type":"error"},{"inputs":[],"name":"TRANSFER_FAILED","type":"error"},{"inputs":[],"name":"UNAUTHORIZED_WINNER","type":"error"},{"inputs":[],"name":"UPKEEP_FAILED","type":"error"},{"anonymous":false,"inputs":[{"indexed":false,"internalType":"uint256","name":"roundNr","type":"uint256"},{"indexed":false,"internalType":"uint256","name":"totalTickets","type":"uint256"},{"indexed":false,"internalType":"uint256","name":"totalPlayers","type":"uint256"}],"name":"LotteryClosed","type":"event"},{"anonymous":false,"inputs":[{"indexed":false,"internalType":"uint256","name":"roundNr","type":"uint256"}],"name":"LotteryOpened","type":"event"},{"anonymous":false,"inputs":[{"indexed":false,"internalType":"uint256","name":"roundNr","type":"uint256"},{"indexed":false,"internalType":"address","name":"player","type":"address"},{"indexed":false,"internalType":"uint256","name":"amount","type":"uint256"},{"indexed":false,"internalType":"uint256","name":"totalBets","type":"uint256"},{"indexed":false,"internalType":"uint256","name":"totalTickets","type":"uint256"}],"name":"TicketsPurchased","type":"event"},{"anonymous":false,"inputs":[{"indexed":false,"internalType":"uint256","name":"amountToken","type":"uint256"},{"indexed":false,"internalType":"uint256","name":"amountETH","type":"uint256"},{"indexed":false,"internalType":"uint256","name":"liquidity","type":"uint256"}],"name":"TokensLiquified","type":"event"},{"anonymous":false,"inputs":[{"indexed":false,"internalType":"address","name":"player","type":"address"},{"indexed":false,"internalType":"uint256[]","name":"amount","type":"uint256[]"}],"name":"TreasuryClaimedMulti","type":"event"},{"anonymous":false,"inputs":[{"indexed":false,"internalType":"address","name":"player","type":"address"},{"indexed":false,"internalType":"uint256","name":"amount","type":"uint256"}],"name":"TreasuryClaimedSingle","type":"event"},{"anonymous":false,"inputs":[{"indexed":false,"internalType":"address","name":"player","type":"address"},{"indexed":false,"internalType":"uint256[]","name":"rounds","type":"uint256[]"}],"name":"WinnerClaimedPrizeMulti","type":"event"},{"anonymous":false,"inputs":[{"indexed":false,"internalType":"address","name":"player","type":"address"},{"indexed":false,"internalType":"uint256","name":"rounds","type":"uint256"}],"name":"WinnerClaimedPrizeSingle","type":"event"},{"inputs":[],"name":"BITMASK_LAST_INDEX","outputs":[{"internalType":"uint256","name":"","type":"uint256"}],"stateMutability":"view","type":"function"},{"inputs":[],"name":"BITMASK_PURCHASER","outputs":[{"internalType":"uint256","name":"","type":"uint256"}],"stateMutability":"view","type":"function"},{"inputs":[],"name":"BITPOS_LAST_INDEX","outputs":[{"internalType":"uint256","name":"","type":"uint256"}],"stateMutability":"view","type":"function"},{"inputs":[{"internalType":"uint256","name":"totalWinners","type":"uint256"},{"internalType":"uint256","name":"totalAmount","type":"uint256"},{"internalType":"uint256","name":"decimals","type":"uint256"}],"name":"calculateRewards","outputs":[{"internalType":"uint256[]","name":"rewards","type":"uint256[]"}],"stateMutability":"pure","type":"function"},{"inputs":[{"internalType":"enum BTCLCoreFixed.Status","name":"status","type":"BTCLCoreFixed.Status"},{"internalType":"uint256","name":"requestId","type":"uint256"},{"internalType":"uint256","name":"totalBets","type":"uint256"},{"internalType":"uint256","name":"maxPlayers","type":"uint256"}],"name":"checkUpkeepVRF","outputs":[{"internalType":"bool","name":"","type":"bool"}],"stateMutability":"pure","type":"function"}],"evm":{"bytecode":{"linkReferences":{},"object":"6115b861003a600b82828239805160001a60731461002d57634e487b7160e01b600052600060045260246000fd5b30600052607381538281f3fe730000000000000000000000000000000000000000301460806040526004361061007b5760003560e01c80636967609b1161005a5780636967609b146100f8578063745052c014610100578063d29c7cbe1461012057600080fd5b8062bc81641461008057806314d7847f146100ae57806356d5d004146100d5575b600080fd5b61009b73ffffffffffffffffffffffffffffffffffffffff81565b6040519081526020015b60405180910390f35b61009b7fffffffffffffffffffffffff000000000000000000000000000000000000000081565b6100e86100e3366004611252565b610142565b60405190151581526020016100a5565b61009b60a081565b61011361010e366004611291565b610186565b6040516100a591906112bd565b81801561012c57600080fd5b5061014061013b366004611301565b6111b3565b005b60008085600281111561015757610157611346565b148015610162575083155b801561016d57508183145b1561017a5750600161017e565b5060005b949350505050565b606060018410806101975750600a84115b156101b157506040805160008152602081019091526111ac565b8367ffffffffffffffff8111156101ca576101ca611375565b6040519080825280602002602001820160405280156101f3578160200160208202803683370190505b509050836001036102375761020982600a6114f5565b6102139084611501565b8160008151811061022657610226611518565b6020026020010181815250506111ac565b836002036102c657600a61024b83826114f5565b610256856006611501565b6102609190611501565b61026a9190611547565b8160008151811061027d5761027d611518565b6020908102919091010152600a61029483826114f5565b61029f856004611501565b6102a99190611501565b6102b39190611547565b8160018151811061022657610226611518565b836003036103a15760646102db83600a6114f5565b6102e685602d611501565b6102f09190611501565b6102fa9190611547565b8160008151811061030d5761030d611518565b6020908102919091010152606461032583600a6114f5565b610330856023611501565b61033a9190611501565b6103449190611547565b8160018151811061035757610357611518565b6020908102919091010152606461036f83600a6114f5565b61037a856014611501565b6103849190611501565b61038e9190611547565b8160028151811061022657610226611518565b836004036104c55760646103b683600a6114f5565b6103c185602d611501565b6103cb9190611501565b6103d59190611547565b816000815181106103e8576103e8611518565b6020908102919091010152600a6103ff83826114f5565b61040a856003611501565b6104149190611501565b61041e9190611547565b8160018151811061043157610431611518565b6020908102919091010152606461044983600a6114f5565b61045485600f611501565b61045e9190611501565b6104689190611547565b8160028151811061047b5761047b611518565b6020908102919091010152606461049383600a6114f5565b61049e85600a611501565b6104a89190611501565b6104b29190611547565b8160038151811061022657610226611518565b8360050361063357600a6104d983826114f5565b6104e4856005611501565b6104ee9190611501565b6104f89190611547565b8160008151811061050b5761050b611518565b6020908102919091010152606461052383600a6114f5565b61052e856015611501565b6105389190611501565b6105429190611547565b8160018151811061055557610555611518565b6020908102919091010152606461056d83600a6114f5565b61057885600c611501565b6105829190611501565b61058c9190611547565b8160028151811061059f5761059f611518565b602090810291909101015260646105b783600a6114f5565b6105c2856009611501565b6105cc9190611501565b6105d69190611547565b816003815181106105e9576105e9611518565b6020908102919091010152606461060183600a6114f5565b61060c856008611501565b6106169190611501565b6106209190611547565b8160048151811061022657610226611518565b836006036107e957600a61064783826114f5565b610652856005611501565b61065c9190611501565b6106669190611547565b8160008151811061067957610679611518565b6020908102919091010152600a61069083826114f5565b61069b856002611501565b6106a59190611501565b6106af9190611547565b816001815181106106c2576106c2611518565b6020908102919091010152600a6106d983826114f5565b6106e4856001611501565b6106ee9190611501565b6106f89190611547565b8160028151811061070b5761070b611518565b6020908102919091010152606461072383600a6114f5565b61072e856008611501565b6107389190611501565b6107429190611547565b8160038151811061075557610755611518565b6020908102919091010152606461076d83600a6114f5565b610778856007611501565b6107829190611501565b61078c9190611547565b8160048151811061079f5761079f611518565b602090810291909101015260646107b783600a6114f5565b6107c2856005611501565b6107cc9190611501565b6107d69190611547565b8160058151811061022657610226611518565b836007036109ea57600a6107fd83826114f5565b610808856005611501565b6108129190611501565b61081c9190611547565b8160008151811061082f5761082f611518565b6020908102919091010152600a61084683826114f5565b610851856002611501565b61085b9190611501565b6108659190611547565b8160018151811061087857610878611518565b6020908102919091010152606461089083600a6114f5565b61089b856008611501565b6108a59190611501565b6108af9190611547565b816002815181106108c2576108c2611518565b602090810291909101015260646108da83600a6114f5565b6108e5856007611501565b6108ef9190611501565b6108f99190611547565b8160038151811061090c5761090c611518565b6020908102919091010152606461092483600a6114f5565b61092f856006611501565b6109399190611501565b6109439190611547565b8160048151811061095657610956611518565b6020908102919091010152606461096e83600a6114f5565b610979856005611501565b6109839190611501565b61098d9190611547565b816005815181106109a0576109a0611518565b602090810291909101015260646109b883600a6114f5565b6109c3856004611501565b6109cd9190611501565b6109d79190611547565b8160068151811061022657610226611518565b83600803610c3557600a6109fe83826114f5565b610a09856005611501565b610a139190611501565b610a1d9190611547565b81600081518110610a3057610a30611518565b60209081029190910101526064610a4883600a6114f5565b610a5385600f611501565b610a5d9190611501565b610a679190611547565b81600181518110610a7a57610a7a611518565b6020908102919091010152600a610a9183826114f5565b610a9c856001611501565b610aa69190611501565b610ab09190611547565b81600281518110610ac357610ac3611518565b60209081029190910101526064610adb83600a6114f5565b610ae6856007611501565b610af09190611501565b610afa9190611547565b81600381518110610b0d57610b0d611518565b60209081029190910101526064610b2583600a6114f5565b610b30856006611501565b610b3a9190611501565b610b449190611547565b81600481518110610b5757610b57611518565b60209081029190910101526064610b6f83600a6114f5565b610b7a856005611501565b610b849190611501565b610b8e9190611547565b81600581518110610ba157610ba1611518565b60209081029190910101526064610bb983600a6114f5565b610bc4856004611501565b610bce9190611501565b610bd89190611547565b81600681518110610beb57610beb611518565b60209081029190910101526064610c0383600a6114f5565b610c0e856003611501565b610c189190611501565b610c229190611547565b8160078151811061022657610226611518565b83600903610ecb57600a610c4983826114f5565b610c54856005611501565b610c5e9190611501565b610c689190611547565b81600081518110610c7b57610c7b611518565b60209081029190910101526064610c9383600a6114f5565b610c9e85600f611501565b610ca89190611501565b610cb29190611547565b81600181518110610cc557610cc5611518565b60209081029190910101526064610cdd83600a6114f5565b610ce8856008611501565b610cf29190611501565b610cfc9190611547565b81600281518110610d0f57610d0f611518565b60209081029190910101526064610d2783600a6114f5565b610d32856007611501565b610d3c9190611501565b610d469190611547565b81600381518110610d5957610d59611518565b60209081029190910101526064610d7183600a6114f5565b610d7c856006611501565b610d869190611501565b610d909190611547565b81600481518110610da357610da3611518565b60209081029190910101526064610dbb83600a6114f5565b610dc6856005611501565b610dd09190611501565b610dda9190611547565b81600581518110610ded57610ded611518565b60209081029190910101526064610e0583600a6114f5565b610e10856004611501565b610e1a9190611501565b610e249190611547565b81600681518110610e3757610e37611518565b60209081029190910101526064610e4f83600a6114f5565b610e5a856003611501565b610e649190611501565b610e6e9190611547565b81600781518110610e8157610e81611518565b60209081029190910101526064610e9983600a6114f5565b610ea4856002611501565b610eae9190611501565b610eb89190611547565b8160088151811061022657610226611518565b83600a036111ac57600a610edf83826114f5565b610eea856005611501565b610ef49190611501565b610efe9190611547565b81600081518110610f1157610f11611518565b6020908102919091010152600a610f2883826114f5565b610f33856002611501565b610f3d9190611501565b610f479190611547565b81600181518110610f5a57610f5a611518565b6020908102919091010152600a610f7183826114f5565b610f7c856001611501565b610f869190611501565b610f909190611547565b81600281518110610fa357610fa3611518565b60209081029190910101526064610fbb83600a6114f5565b610fc6856006611501565b610fd09190611501565b610fda9190611547565b81600381518110610fed57610fed611518565b60209081029190910101526103e861100683600a6114f5565b61101185602c611501565b61101b9190611501565b6110259190611547565b8160048151811061103857611038611518565b6020908102919091010152606461105083600a6114f5565b61105b856003611501565b6110659190611501565b61106f9190611547565b8160058151811061108257611082611518565b60209081029190910101526103e861109b83600a6114f5565b6110a6856018611501565b6110b09190611501565b6110ba9190611547565b816006815181106110cd576110cd611518565b60209081029190910101526103e86110e683600a6114f5565b6110f1856016611501565b6110fb9190611501565b6111059190611547565b8160078151811061111857611118611518565b6020908102919091010152606461113083600a6114f5565b61113b856002611501565b6111459190611501565b61114f9190611547565b8160088151811061116257611162611518565b6020908102919091010152606461117a83600a6114f5565b611185856002611501565b61118f9190611501565b6111999190611547565b8160098151811061022657610226611518565b9392505050565b60008273ffffffffffffffffffffffffffffffffffffffff168260405160006040518083038185875af1925050503d806000811461120d576040519150601f19603f3d011682016040523d82523d6000602084013e611212565b606091505b505090508061124d576040517f3f4ab80e00000000000000000000000000000000000000000000000000000000815260040160405180910390fd5b505050565b6000806000806080858703121561126857600080fd5b84356003811061127757600080fd5b966020860135965060408601359560600135945092505050565b6000806000606084860312156112a657600080fd5b505081359360208301359350604090920135919050565b6020808252825182820181905260009190848201906040850190845b818110156112f5578351835292840192918401916001016112d9565b50909695505050505050565b6000806040838503121561131457600080fd5b823573ffffffffffffffffffffffffffffffffffffffff8116811461133857600080fd5b946020939093013593505050565b7f4e487b7100000000000000000000000000000000000000000000000000000000600052602160045260246000fd5b7f4e487b7100000000000000000000000000000000000000000000000000000000600052604160045260246000fd5b7f4e487b7100000000000000000000000000000000000000000000000000000000600052601160045260246000fd5b600181815b8085111561142c57817fffffffffffffffffffffffffffffffffffffffffffffffffffffffffffffffff04821115611412576114126113a4565b8085161561141f57918102915b93841c93908002906113d8565b509250929050565b600082611443575060016114ef565b81611450575060006114ef565b816001811461146657600281146114705761148c565b60019150506114ef565b60ff841115611481576114816113a4565b50506001821b6114ef565b5060208310610133831016604e8410600b84101617156114af575081810a6114ef565b6114b983836113d3565b807fffffffffffffffffffffffffffffffffffffffffffffffffffffffffffffffff048211156114eb576114eb6113a4565b0290505b92915050565b60006111ac8383611434565b80820281158282048414176114ef576114ef6113a4565b7f4e487b7100000000000000000000000000000000000000000000000000000000600052603260045260246000fd5b60008261157d577f4e487b7100000000000000000000000000000000000000000000000000000000600052601260045260246000fd5b50049056fea2646970667358221220575e93a173c440ddf9e8c6c3411ac7def61e6f05f5069d04df525364597a2bc364736f6c63430008110033","opcodes":"PUSH2 0x15B8 PUSH2 0x3A PUSH1 0xB DUP3 DUP3 DUP3 CODECOPY DUP1 MLOAD PUSH1 0x0 BYTE PUSH1 0x73 EQ PUSH2 0x2D JUMPI PUSH4 0x4E487B71 PUSH1 0xE0 SHL PUSH1 0x0 MSTORE PUSH1 0x0 PUSH1 0x4 MSTORE PUSH1 0x24 PUSH1 0x0 REVERT JUMPDEST ADDRESS PUSH1 0x0 MSTORE PUSH1 0x73 DUP2 MSTORE8 DUP3 DUP2 RETURN INVALID PUSH20 0x0 ADDRESS EQ PUSH1 0x80 PUSH1 0x40 MSTORE PUSH1 0x4 CALLDATASIZE LT PUSH2 0x7B JUMPI PUSH1 0x0 CALLDATALOAD PUSH1 0xE0 SHR DUP1 PUSH4 0x6967609B GT PUSH2 0x5A JUMPI DUP1 PUSH4 0x6967609B EQ PUSH2 0xF8 JUMPI DUP1 PUSH4 0x745052C0 EQ PUSH2 0x100 JUMPI DUP1 PUSH4 0xD29C7CBE EQ PUSH2 0x120 JUMPI PUSH1 0x0 DUP1 REVERT JUMPDEST DUP1 PUSH3 0xBC8164 EQ PUSH2 0x80 JUMPI DUP1 PUSH4 0x14D7847F EQ PUSH2 0xAE JUMPI DUP1 PUSH4 0x56D5D004 EQ PUSH2 0xD5 JUMPI JUMPDEST PUSH1 0x0 DUP1 REVERT JUMPDEST PUSH2 0x9B PUSH20 0xFFFFFFFFFFFFFFFFFFFFFFFFFFFFFFFFFFFFFFFF DUP2 JUMP JUMPDEST PUSH1 0x40 MLOAD SWAP1 DUP2 MSTORE PUSH1 0x20 ADD JUMPDEST PUSH1 0x40 MLOAD DUP1 SWAP2 SUB SWAP1 RETURN JUMPDEST PUSH2 0x9B PUSH32 0xFFFFFFFFFFFFFFFFFFFFFFFF0000000000000000000000000000000000000000 DUP2 JUMP JUMPDEST PUSH2 0xE8 PUSH2 0xE3 CALLDATASIZE PUSH1 0x4 PUSH2 0x1252 JUMP JUMPDEST PUSH2 0x142 JUMP JUMPDEST PUSH1 0x40 MLOAD SWAP1 ISZERO ISZERO DUP2 MSTORE PUSH1 0x20 ADD PUSH2 0xA5 JUMP JUMPDEST PUSH2 0x9B PUSH1 0xA0 DUP2 JUMP JUMPDEST PUSH2 0x113 PUSH2 0x10E CALLDATASIZE PUSH1 0x4 PUSH2 0x1291 JUMP JUMPDEST PUSH2 0x186 JUMP JUMPDEST PUSH1 0x40 MLOAD PUSH2 0xA5 SWAP2 SWAP1 PUSH2 0x12BD JUMP JUMPDEST DUP2 DUP1 ISZERO PUSH2 0x12C JUMPI PUSH1 0x0 DUP1 REVERT JUMPDEST POP PUSH2 0x140 PUSH2 0x13B CALLDATASIZE PUSH1 0x4 PUSH2 0x1301 JUMP JUMPDEST PUSH2 0x11B3 JUMP JUMPDEST STOP JUMPDEST PUSH1 0x0 DUP1 DUP6 PUSH1 0x2 DUP2 GT ISZERO PUSH2 0x157 JUMPI PUSH2 0x157 PUSH2 0x1346 JUMP JUMPDEST EQ DUP1 ISZERO PUSH2 0x162 JUMPI POP DUP4 ISZERO JUMPDEST DUP1 ISZERO PUSH2 0x16D JUMPI POP DUP2 DUP4 EQ JUMPDEST ISZERO PUSH2 0x17A JUMPI POP PUSH1 0x1 PUSH2 0x17E JUMP JUMPDEST POP PUSH1 0x0 JUMPDEST SWAP5 SWAP4 POP POP POP POP JUMP JUMPDEST PUSH1 0x60 PUSH1 0x1 DUP5 LT DUP1 PUSH2 0x197 JUMPI POP PUSH1 0xA DUP5 GT JUMPDEST ISZERO PUSH2 0x1B1 JUMPI POP PUSH1 0x40 DUP1 MLOAD PUSH1 0x0 DUP2 MSTORE PUSH1 0x20 DUP2 ADD SWAP1 SWAP2 MSTORE PUSH2 0x11AC JUMP JUMPDEST DUP4 PUSH8 0xFFFFFFFFFFFFFFFF DUP2 GT ISZERO PUSH2 0x1CA JUMPI PUSH2 0x1CA PUSH2 0x1375 JUMP JUMPDEST PUSH1 0x40 MLOAD SWAP1 DUP1 DUP3 MSTORE DUP1 PUSH1 0x20 MUL PUSH1 0x20 ADD DUP3 ADD PUSH1 0x40 MSTORE DUP1 ISZERO PUSH2 0x1F3 JUMPI DUP2 PUSH1 0x20 ADD PUSH1 0x20 DUP3 MUL DUP1 CALLDATASIZE DUP4 CALLDATACOPY ADD SWAP1 POP JUMPDEST POP SWAP1 POP DUP4 PUSH1 0x1 SUB PUSH2 0x237 JUMPI PUSH2 0x209 DUP3 PUSH1 0xA PUSH2 0x14F5 JUMP JUMPDEST PUSH2 0x213 SWAP1 DUP5 PUSH2 0x1501 JUMP JUMPDEST DUP2 PUSH1 0x0 DUP2 MLOAD DUP2 LT PUSH2 0x226 JUMPI PUSH2 0x226 PUSH2 0x1518 JUMP JUMPDEST PUSH1 0x20 MUL PUSH1 0x20 ADD ADD DUP2 DUP2 MSTORE POP POP PUSH2 0x11AC JUMP JUMPDEST DUP4 PUSH1 0x2 SUB PUSH2 0x2C6 JUMPI PUSH1 0xA PUSH2 0x24B DUP4 DUP3 PUSH2 0x14F5 JUMP JUMPDEST PUSH2 0x256 DUP6 PUSH1 0x6 PUSH2 0x1501 JUMP JUMPDEST PUSH2 0x260 SWAP2 SWAP1 PUSH2 0x1501 JUMP JUMPDEST PUSH2 0x26A SWAP2 SWAP1 PUSH2 0x1547 JUMP JUMPDEST DUP2 PUSH1 0x0 DUP2 MLOAD DUP2 LT PUSH2 0x27D JUMPI PUSH2 0x27D PUSH2 0x1518 JUMP JUMPDEST PUSH1 0x20 SWAP1 DUP2 MUL SWAP2 SWAP1 SWAP2 ADD ADD MSTORE PUSH1 0xA PUSH2 0x294 DUP4 DUP3 PUSH2 0x14F5 JUMP JUMPDEST PUSH2 0x29F DUP6 PUSH1 0x4 PUSH2 0x1501 JUMP JUMPDEST PUSH2 0x2A9 SWAP2 SWAP1 PUSH2 0x1501 JUMP JUMPDEST PUSH2 0x2B3 SWAP2 SWAP1 PUSH2 0x1547 JUMP JUMPDEST DUP2 PUSH1 0x1 DUP2 MLOAD DUP2 LT PUSH2 0x226 JUMPI PUSH2 0x226 PUSH2 0x1518 JUMP JUMPDEST DUP4 PUSH1 0x3 SUB PUSH2 0x3A1 JUMPI PUSH1 0x64 PUSH2 0x2DB DUP4 PUSH1 0xA PUSH2 0x14F5 JUMP JUMPDEST PUSH2 0x2E6 DUP6 PUSH1 0x2D PUSH2 0x1501 JUMP JUMPDEST PUSH2 0x2F0 SWAP2 SWAP1 PUSH2 0x1501 JUMP JUMPDEST PUSH2 0x2FA SWAP2 SWAP1 PUSH2 0x1547 JUMP JUMPDEST DUP2 PUSH1 0x0 DUP2 MLOAD DUP2 LT PUSH2 0x30D JUMPI PUSH2 0x30D PUSH2 0x1518 JUMP JUMPDEST PUSH1 0x20 SWAP1 DUP2 MUL SWAP2 SWAP1 SWAP2 ADD ADD MSTORE PUSH1 0x64 PUSH2 0x325 DUP4 PUSH1 0xA PUSH2 0x14F5 JUMP JUMPDEST PUSH2 0x330 DUP6 PUSH1 0x23 PUSH2 0x1501 JUMP JUMPDEST PUSH2 0x33A SWAP2 SWAP1 PUSH2 0x1501 JUMP JUMPDEST PUSH2 0x344 SWAP2 SWAP1 PUSH2 0x1547 JUMP JUMPDEST DUP2 PUSH1 0x1 DUP2 MLOAD DUP2 LT PUSH2 0x357 JUMPI PUSH2 0x357 PUSH2 0x1518 JUMP JUMPDEST PUSH1 0x20 SWAP1 DUP2 MUL SWAP2 SWAP1 SWAP2 ADD ADD MSTORE PUSH1 0x64 PUSH2 0x36F DUP4 PUSH1 0xA PUSH2 0x14F5 JUMP JUMPDEST PUSH2 0x37A DUP6 PUSH1 0x14 PUSH2 0x1501 JUMP JUMPDEST PUSH2 0x384 SWAP2 SWAP1 PUSH2 0x1501 JUMP JUMPDEST PUSH2 0x38E SWAP2 SWAP1 PUSH2 0x1547 JUMP JUMPDEST DUP2 PUSH1 0x2 DUP2 MLOAD DUP2 LT PUSH2 0x226 JUMPI PUSH2 0x226 PUSH2 0x1518 JUMP JUMPDEST DUP4 PUSH1 0x4 SUB PUSH2 0x4C5 JUMPI PUSH1 0x64 PUSH2 0x3B6 DUP4 PUSH1 0xA PUSH2 0x14F5 JUMP JUMPDEST PUSH2 0x3C1 DUP6 PUSH1 0x2D PUSH2 0x1501 JUMP JUMPDEST PUSH2 0x3CB SWAP2 SWAP1 PUSH2 0x1501 JUMP JUMPDEST PUSH2 0x3D5 SWAP2 SWAP1 PUSH2 0x1547 JUMP JUMPDEST DUP2 PUSH1 0x0 DUP2 MLOAD DUP2 LT PUSH2 0x3E8 JUMPI PUSH2 0x3E8 PUSH2 0x1518 JUMP JUMPDEST PUSH1 0x20 SWAP1 DUP2 MUL SWAP2 SWAP1 SWAP2 ADD ADD MSTORE PUSH1 0xA PUSH2 0x3FF DUP4 DUP3 PUSH2 0x14F5 JUMP JUMPDEST PUSH2 0x40A DUP6 PUSH1 0x3 PUSH2 0x1501 JUMP JUMPDEST PUSH2 0x414 SWAP2 SWAP1 PUSH2 0x1501 JUMP JUMPDEST PUSH2 0x41E SWAP2 SWAP1 PUSH2 0x1547 JUMP JUMPDEST DUP2 PUSH1 0x1 DUP2 MLOAD DUP2 LT PUSH2 0x431 JUMPI PUSH2 0x431 PUSH2 0x1518 JUMP JUMPDEST PUSH1 0x20 SWAP1 DUP2 MUL SWAP2 SWAP1 SWAP2 ADD ADD MSTORE PUSH1 0x64 PUSH2 0x449 DUP4 PUSH1 0xA PUSH2 0x14F5 JUMP JUMPDEST PUSH2 0x454 DUP6 PUSH1 0xF PUSH2 0x1501 JUMP JUMPDEST PUSH2 0x45E SWAP2 SWAP1 PUSH2 0x1501 JUMP JUMPDEST PUSH2 0x468 SWAP2 SWAP1 PUSH2 0x1547 JUMP JUMPDEST DUP2 PUSH1 0x2 DUP2 MLOAD DUP2 LT PUSH2 0x47B JUMPI PUSH2 0x47B PUSH2 0x1518 JUMP JUMPDEST PUSH1 0x20 SWAP1 DUP2 MUL SWAP2 SWAP1 SWAP2 ADD ADD MSTORE PUSH1 0x64 PUSH2 0x493 DUP4 PUSH1 0xA PUSH2 0x14F5 JUMP JUMPDEST PUSH2 0x49E DUP6 PUSH1 0xA PUSH2 0x1501 JUMP JUMPDEST PUSH2 0x4A8 SWAP2 SWAP1 PUSH2 0x1501 JUMP JUMPDEST PUSH2 0x4B2 SWAP2 SWAP1 PUSH2 0x1547 JUMP JUMPDEST DUP2 PUSH1 0x3 DUP2 MLOAD DUP2 LT PUSH2 0x226 JUMPI PUSH2 0x226 PUSH2 0x1518 JUMP JUMPDEST DUP4 PUSH1 0x5 SUB PUSH2 0x633 JUMPI PUSH1 0xA PUSH2 0x4D9 DUP4 DUP3 PUSH2 0x14F5 JUMP JUMPDEST PUSH2 0x4E4 DUP6 PUSH1 0x5 PUSH2 0x1501 JUMP JUMPDEST PUSH2 0x4EE SWAP2 SWAP1 PUSH2 0x1501 JUMP JUMPDEST PUSH2 0x4F8 SWAP2 SWAP1 PUSH2 0x1547 JUMP JUMPDEST DUP2 PUSH1 0x0 DUP2 MLOAD DUP2 LT PUSH2 0x50B JUMPI PUSH2 0x50B PUSH2 0x1518 JUMP JUMPDEST PUSH1 0x20 SWAP1 DUP2 MUL SWAP2 SWAP1 SWAP2 ADD ADD MSTORE PUSH1 0x64 PUSH2 0x523 DUP4 PUSH1 0xA PUSH2 0x14F5 JUMP JUMPDEST PUSH2 0x52E DUP6 PUSH1 0x15 PUSH2 0x1501 JUMP JUMPDEST PUSH2 0x538 SWAP2 SWAP1 PUSH2 0x1501 JUMP JUMPDEST PUSH2 0x542 SWAP2 SWAP1 PUSH2 0x1547 JUMP JUMPDEST DUP2 PUSH1 0x1 DUP2 MLOAD DUP2 LT PUSH2 0x555 JUMPI PUSH2 0x555 PUSH2 0x1518 JUMP JUMPDEST PUSH1 0x20 SWAP1 DUP2 MUL SWAP2 SWAP1 SWAP2 ADD ADD MSTORE PUSH1 0x64 PUSH2 0x56D DUP4 PUSH1 0xA PUSH2 0x14F5 JUMP JUMPDEST PUSH2 0x578 DUP6 PUSH1 0xC PUSH2 0x1501 JUMP JUMPDEST PUSH2 0x582 SWAP2 SWAP1 PUSH2 0x1501 JUMP JUMPDEST PUSH2 0x58C SWAP2 SWAP1 PUSH2 0x1547 JUMP JUMPDEST DUP2 PUSH1 0x2 DUP2 MLOAD DUP2 LT PUSH2 0x59F JUMPI PUSH2 0x59F PUSH2 0x1518 JUMP JUMPDEST PUSH1 0x20 SWAP1 DUP2 MUL SWAP2 SWAP1 SWAP2 ADD ADD MSTORE PUSH1 0x64 PUSH2 0x5B7 DUP4 PUSH1 0xA PUSH2 0x14F5 JUMP JUMPDEST PUSH2 0x5C2 DUP6 PUSH1 0x9 PUSH2 0x1501 JUMP JUMPDEST PUSH2 0x5CC SWAP2 SWAP1 PUSH2 0x1501 JUMP JUMPDEST PUSH2 0x5D6 SWAP2 SWAP1 PUSH2 0x1547 JUMP JUMPDEST DUP2 PUSH1 0x3 DUP2 MLOAD DUP2 LT PUSH2 0x5E9 JUMPI PUSH2 0x5E9 PUSH2 0x1518 JUMP JUMPDEST PUSH1 0x20 SWAP1 DUP2 MUL SWAP2 SWAP1 SWAP2 ADD ADD MSTORE PUSH1 0x64 PUSH2 0x601 DUP4 PUSH1 0xA PUSH2 0x14F5 JUMP JUMPDEST PUSH2 0x60C DUP6 PUSH1 0x8 PUSH2 0x1501 JUMP JUMPDEST PUSH2 0x616 SWAP2 SWAP1 PUSH2 0x1501 JUMP JUMPDEST PUSH2 0x620 SWAP2 SWAP1 PUSH2 0x1547 JUMP JUMPDEST DUP2 PUSH1 0x4 DUP2 MLOAD DUP2 LT PUSH2 0x226 JUMPI PUSH2 0x226 PUSH2 0x1518 JUMP JUMPDEST DUP4 PUSH1 0x6 SUB PUSH2 0x7E9 JUMPI PUSH1 0xA PUSH2 0x647 DUP4 DUP3 PUSH2 0x14F5 JUMP JUMPDEST PUSH2 0x652 DUP6 PUSH1 0x5 PUSH2 0x1501 JUMP JUMPDEST PUSH2 0x65C SWAP2 SWAP1 PUSH2 0x1501 JUMP JUMPDEST PUSH2 0x666 SWAP2 SWAP1 PUSH2 0x1547 JUMP JUMPDEST DUP2 PUSH1 0x0 DUP2 MLOAD DUP2 LT PUSH2 0x679 JUMPI PUSH2 0x679 PUSH2 0x1518 JUMP JUMPDEST PUSH1 0x20 SWAP1 DUP2 MUL SWAP2 SWAP1 SWAP2 ADD ADD MSTORE PUSH1 0xA PUSH2 0x690 DUP4 DUP3 PUSH2 0x14F5 JUMP JUMPDEST PUSH2 0x69B DUP6 PUSH1 0x2 PUSH2 0x1501 JUMP JUMPDEST PUSH2 0x6A5 SWAP2 SWAP1 PUSH2 0x1501 JUMP JUMPDEST PUSH2 0x6AF SWAP2 SWAP1 PUSH2 0x1547 JUMP JUMPDEST DUP2 PUSH1 0x1 DUP2 MLOAD DUP2 LT PUSH2 0x6C2 JUMPI PUSH2 0x6C2 PUSH2 0x1518 JUMP JUMPDEST PUSH1 0x20 SWAP1 DUP2 MUL SWAP2 SWAP1 SWAP2 ADD ADD MSTORE PUSH1 0xA PUSH2 0x6D9 DUP4 DUP3 PUSH2 0x14F5 JUMP JUMPDEST PUSH2 0x6E4 DUP6 PUSH1 0x1 PUSH2 0x1501 JUMP JUMPDEST PUSH2 0x6EE SWAP2 SWAP1 PUSH2 0x1501 JUMP JUMPDEST PUSH2 0x6F8 SWAP2 SWAP1 PUSH2 0x1547 JUMP JUMPDEST DUP2 PUSH1 0x2 DUP2 MLOAD DUP2 LT PUSH2 0x70B JUMPI PUSH2 0x70B PUSH2 0x1518 JUMP JUMPDEST PUSH1 0x20 SWAP1 DUP2 MUL SWAP2 SWAP1 SWAP2 ADD ADD MSTORE PUSH1 0x64 PUSH2 0x723 DUP4 PUSH1 0xA PUSH2 0x14F5 JUMP JUMPDEST PUSH2 0x72E DUP6 PUSH1 0x8 PUSH2 0x1501 JUMP JUMPDEST PUSH2 0x738 SWAP2 SWAP1 PUSH2 0x1501 JUMP JUMPDEST PUSH2 0x742 SWAP2 SWAP1 PUSH2 0x1547 JUMP JUMPDEST DUP2 PUSH1 0x3 DUP2 MLOAD DUP2 LT PUSH2 0x755 JUMPI PUSH2 0x755 PUSH2 0x1518 JUMP JUMPDEST PUSH1 0x20 SWAP1 DUP2 MUL SWAP2 SWAP1 SWAP2 ADD ADD MSTORE PUSH1 0x64 PUSH2 0x76D DUP4 PUSH1 0xA PUSH2 0x14F5 JUMP JUMPDEST PUSH2 0x778 DUP6 PUSH1 0x7 PUSH2 0x1501 JUMP JUMPDEST PUSH2 0x782 SWAP2 SWAP1 PUSH2 0x1501 JUMP JUMPDEST PUSH2 0x78C SWAP2 SWAP1 PUSH2 0x1547 JUMP JUMPDEST DUP2 PUSH1 0x4 DUP2 MLOAD DUP2 LT PUSH2 0x79F JUMPI PUSH2 0x79F PUSH2 0x1518 JUMP JUMPDEST PUSH1 0x20 SWAP1 DUP2 MUL SWAP2 SWAP1 SWAP2 ADD ADD MSTORE PUSH1 0x64 PUSH2 0x7B7 DUP4 PUSH1 0xA PUSH2 0x14F5 JUMP JUMPDEST PUSH2 0x7C2 DUP6 PUSH1 0x5 PUSH2 0x1501 JUMP JUMPDEST PUSH2 0x7CC SWAP2 SWAP1 PUSH2 0x1501 JUMP JUMPDEST PUSH2 0x7D6 SWAP2 SWAP1 PUSH2 0x1547 JUMP JUMPDEST DUP2 PUSH1 0x5 DUP2 MLOAD DUP2 LT PUSH2 0x226 JUMPI PUSH2 0x226 PUSH2 0x1518 JUMP JUMPDEST DUP4 PUSH1 0x7 SUB PUSH2 0x9EA JUMPI PUSH1 0xA PUSH2 0x7FD DUP4 DUP3 PUSH2 0x14F5 JUMP JUMPDEST PUSH2 0x808 DUP6 PUSH1 0x5 PUSH2 0x1501 JUMP JUMPDEST PUSH2 0x812 SWAP2 SWAP1 PUSH2 0x1501 JUMP JUMPDEST PUSH2 0x81C SWAP2 SWAP1 PUSH2 0x1547 JUMP JUMPDEST DUP2 PUSH1 0x0 DUP2 MLOAD DUP2 LT PUSH2 0x82F JUMPI PUSH2 0x82F PUSH2 0x1518 JUMP JUMPDEST PUSH1 0x20 SWAP1 DUP2 MUL SWAP2 SWAP1 SWAP2 ADD ADD MSTORE PUSH1 0xA PUSH2 0x846 DUP4 DUP3 PUSH2 0x14F5 JUMP JUMPDEST PUSH2 0x851 DUP6 PUSH1 0x2 PUSH2 0x1501 JUMP JUMPDEST PUSH2 0x85B SWAP2 SWAP1 PUSH2 0x1501 JUMP JUMPDEST PUSH2 0x865 SWAP2 SWAP1 PUSH2 0x1547 JUMP JUMPDEST DUP2 PUSH1 0x1 DUP2 MLOAD DUP2 LT PUSH2 0x878 JUMPI PUSH2 0x878 PUSH2 0x1518 JUMP JUMPDEST PUSH1 0x20 SWAP1 DUP2 MUL SWAP2 SWAP1 SWAP2 ADD ADD MSTORE PUSH1 0x64 PUSH2 0x890 DUP4 PUSH1 0xA PUSH2 0x14F5 JUMP JUMPDEST PUSH2 0x89B DUP6 PUSH1 0x8 PUSH2 0x1501 JUMP JUMPDEST PUSH2 0x8A5 SWAP2 SWAP1 PUSH2 0x1501 JUMP JUMPDEST PUSH2 0x8AF SWAP2 SWAP1 PUSH2 0x1547 JUMP JUMPDEST DUP2 PUSH1 0x2 DUP2 MLOAD DUP2 LT PUSH2 0x8C2 JUMPI PUSH2 0x8C2 PUSH2 0x1518 JUMP JUMPDEST PUSH1 0x20 SWAP1 DUP2 MUL SWAP2 SWAP1 SWAP2 ADD ADD MSTORE PUSH1 0x64 PUSH2 0x8DA DUP4 PUSH1 0xA PUSH2 0x14F5 JUMP JUMPDEST PUSH2 0x8E5 DUP6 PUSH1 0x7 PUSH2 0x1501 JUMP JUMPDEST PUSH2 0x8EF SWAP2 SWAP1 PUSH2 0x1501 JUMP JUMPDEST PUSH2 0x8F9 SWAP2 SWAP1 PUSH2 0x1547 JUMP JUMPDEST DUP2 PUSH1 0x3 DUP2 MLOAD DUP2 LT PUSH2 0x90C JUMPI PUSH2 0x90C PUSH2 0x1518 JUMP JUMPDEST PUSH1 0x20 SWAP1 DUP2 MUL SWAP2 SWAP1 SWAP2 ADD ADD MSTORE PUSH1 0x64 PUSH2 0x924 DUP4 PUSH1 0xA PUSH2 0x14F5 JUMP JUMPDEST PUSH2 0x92F DUP6 PUSH1 0x6 PUSH2 0x1501 JUMP JUMPDEST PUSH2 0x939 SWAP2 SWAP1 PUSH2 0x1501 JUMP JUMPDEST PUSH2 0x943 SWAP2 SWAP1 PUSH2 0x1547 JUMP JUMPDEST DUP2 PUSH1 0x4 DUP2 MLOAD DUP2 LT PUSH2 0x956 JUMPI PUSH2 0x956 PUSH2 0x1518 JUMP JUMPDEST PUSH1 0x20 SWAP1 DUP2 MUL SWAP2 SWAP1 SWAP2 ADD ADD MSTORE PUSH1 0x64 PUSH2 0x96E DUP4 PUSH1 0xA PUSH2 0x14F5 JUMP JUMPDEST PUSH2 0x979 DUP6 PUSH1 0x5 PUSH2 0x1501 JUMP JUMPDEST PUSH2 0x983 SWAP2 SWAP1 PUSH2 0x1501 JUMP JUMPDEST PUSH2 0x98D SWAP2 SWAP1 PUSH2 0x1547 JUMP JUMPDEST DUP2 PUSH1 0x5 DUP2 MLOAD DUP2 LT PUSH2 0x9A0 JUMPI PUSH2 0x9A0 PUSH2 0x1518 JUMP JUMPDEST PUSH1 0x20 SWAP1 DUP2 MUL SWAP2 SWAP1 SWAP2 ADD ADD MSTORE PUSH1 0x64 PUSH2 0x9B8 DUP4 PUSH1 0xA PUSH2 0x14F5 JUMP JUMPDEST PUSH2 0x9C3 DUP6 PUSH1 0x4 PUSH2 0x1501 JUMP JUMPDEST PUSH2 0x9CD SWAP2 SWAP1 PUSH2 0x1501 JUMP JUMPDEST PUSH2 0x9D7 SWAP2 SWAP1 PUSH2 0x1547 JUMP JUMPDEST DUP2 PUSH1 0x6 DUP2 MLOAD DUP2 LT PUSH2 0x226 JUMPI PUSH2 0x226 PUSH2 0x1518 JUMP JUMPDEST DUP4 PUSH1 0x8 SUB PUSH2 0xC35 JUMPI PUSH1 0xA PUSH2 0x9FE DUP4 DUP3 PUSH2 0x14F5 JUMP JUMPDEST PUSH2 0xA09 DUP6 PUSH1 0x5 PUSH2 0x1501 JUMP JUMPDEST PUSH2 0xA13 SWAP2 SWAP1 PUSH2 0x1501 JUMP JUMPDEST PUSH2 0xA1D SWAP2 SWAP1 PUSH2 0x1547 JUMP JUMPDEST DUP2 PUSH1 0x0 DUP2 MLOAD DUP2 LT PUSH2 0xA30 JUMPI PUSH2 0xA30 PUSH2 0x1518 JUMP JUMPDEST PUSH1 0x20 SWAP1 DUP2 MUL SWAP2 SWAP1 SWAP2 ADD ADD MSTORE PUSH1 0x64 PUSH2 0xA48 DUP4 PUSH1 0xA PUSH2 0x14F5 JUMP JUMPDEST PUSH2 0xA53 DUP6 PUSH1 0xF PUSH2 0x1501 JUMP JUMPDEST PUSH2 0xA5D SWAP2 SWAP1 PUSH2 0x1501 JUMP JUMPDEST PUSH2 0xA67 SWAP2 SWAP1 PUSH2 0x1547 JUMP JUMPDEST DUP2 PUSH1 0x1 DUP2 MLOAD DUP2 LT PUSH2 0xA7A JUMPI PUSH2 0xA7A PUSH2 0x1518 JUMP JUMPDEST PUSH1 0x20 SWAP1 DUP2 MUL SWAP2 SWAP1 SWAP2 ADD ADD MSTORE PUSH1 0xA PUSH2 0xA91 DUP4 DUP3 PUSH2 0x14F5 JUMP JUMPDEST PUSH2 0xA9C DUP6 PUSH1 0x1 PUSH2 0x1501 JUMP JUMPDEST PUSH2 0xAA6 SWAP2 SWAP1 PUSH2 0x1501 JUMP JUMPDEST PUSH2 0xAB0 SWAP2 SWAP1 PUSH2 0x1547 JUMP JUMPDEST DUP2 PUSH1 0x2 DUP2 MLOAD DUP2 LT PUSH2 0xAC3 JUMPI PUSH2 0xAC3 PUSH2 0x1518 JUMP JUMPDEST PUSH1 0x20 SWAP1 DUP2 MUL SWAP2 SWAP1 SWAP2 ADD ADD MSTORE PUSH1 0x64 PUSH2 0xADB DUP4 PUSH1 0xA PUSH2 0x14F5 JUMP JUMPDEST PUSH2 0xAE6 DUP6 PUSH1 0x7 PUSH2 0x1501 JUMP JUMPDEST PUSH2 0xAF0 SWAP2 SWAP1 PUSH2 0x1501 JUMP JUMPDEST PUSH2 0xAFA SWAP2 SWAP1 PUSH2 0x1547 JUMP JUMPDEST DUP2 PUSH1 0x3 DUP2 MLOAD DUP2 LT PUSH2 0xB0D JUMPI PUSH2 0xB0D PUSH2 0x1518 JUMP JUMPDEST PUSH1 0x20 SWAP1 DUP2 MUL SWAP2 SWAP1 SWAP2 ADD ADD MSTORE PUSH1 0x64 PUSH2 0xB25 DUP4 PUSH1 0xA PUSH2 0x14F5 JUMP JUMPDEST PUSH2 0xB30 DUP6 PUSH1 0x6 PUSH2 0x1501 JUMP JUMPDEST PUSH2 0xB3A SWAP2 SWAP1 PUSH2 0x1501 JUMP JUMPDEST PUSH2 0xB44 SWAP2 SWAP1 PUSH2 0x1547 JUMP JUMPDEST DUP2 PUSH1 0x4 DUP2 MLOAD DUP2 LT PUSH2 0xB57 JUMPI PUSH2 0xB57 PUSH2 0x1518 JUMP JUMPDEST PUSH1 0x20 SWAP1 DUP2 MUL SWAP2 SWAP1 SWAP2 ADD ADD MSTORE PUSH1 0x64 PUSH2 0xB6F DUP4 PUSH1 0xA PUSH2 0x14F5 JUMP JUMPDEST PUSH2 0xB7A DUP6 PUSH1 0x5 PUSH2 0x1501 JUMP JUMPDEST PUSH2 0xB84 SWAP2 SWAP1 PUSH2 0x1501 JUMP JUMPDEST PUSH2 0xB8E SWAP2 SWAP1 PUSH2 0x1547 JUMP JUMPDEST DUP2 PUSH1 0x5 DUP2 MLOAD DUP2 LT PUSH2 0xBA1 JUMPI PUSH2 0xBA1 PUSH2 0x1518 JUMP JUMPDEST PUSH1 0x20 SWAP1 DUP2 MUL SWAP2 SWAP1 SWAP2 ADD ADD MSTORE PUSH1 0x64 PUSH2 0xBB9 DUP4 PUSH1 0xA PUSH2 0x14F5 JUMP JUMPDEST PUSH2 0xBC4 DUP6 PUSH1 0x4 PUSH2 0x1501 JUMP JUMPDEST PUSH2 0xBCE SWAP2 SWAP1 PUSH2 0x1501 JUMP JUMPDEST PUSH2 0xBD8 SWAP2 SWAP1 PUSH2 0x1547 JUMP JUMPDEST DUP2 PUSH1 0x6 DUP2 MLOAD DUP2 LT PUSH2 0xBEB JUMPI PUSH2 0xBEB PUSH2 0x1518 JUMP JUMPDEST PUSH1 0x20 SWAP1 DUP2 MUL SWAP2 SWAP1 SWAP2 ADD ADD MSTORE PUSH1 0x64 PUSH2 0xC03 DUP4 PUSH1 0xA PUSH2 0x14F5 JUMP JUMPDEST PUSH2 0xC0E DUP6 PUSH1 0x3 PUSH2 0x1501 JUMP JUMPDEST PUSH2 0xC18 SWAP2 SWAP1 PUSH2 0x1501 JUMP JUMPDEST PUSH2 0xC22 SWAP2 SWAP1 PUSH2 0x1547 JUMP JUMPDEST DUP2 PUSH1 0x7 DUP2 MLOAD DUP2 LT PUSH2 0x226 JUMPI PUSH2 0x226 PUSH2 0x1518 JUMP JUMPDEST DUP4 PUSH1 0x9 SUB PUSH2 0xECB JUMPI PUSH1 0xA PUSH2 0xC49 DUP4 DUP3 PUSH2 0x14F5 JUMP JUMPDEST PUSH2 0xC54 DUP6 PUSH1 0x5 PUSH2 0x1501 JUMP JUMPDEST PUSH2 0xC5E SWAP2 SWAP1 PUSH2 0x1501 JUMP JUMPDEST PUSH2 0xC68 SWAP2 SWAP1 PUSH2 0x1547 JUMP JUMPDEST DUP2 PUSH1 0x0 DUP2 MLOAD DUP2 LT PUSH2 0xC7B JUMPI PUSH2 0xC7B PUSH2 0x1518 JUMP JUMPDEST PUSH1 0x20 SWAP1 DUP2 MUL SWAP2 SWAP1 SWAP2 ADD ADD MSTORE PUSH1 0x64 PUSH2 0xC93 DUP4 PUSH1 0xA PUSH2 0x14F5 JUMP JUMPDEST PUSH2 0xC9E DUP6 PUSH1 0xF PUSH2 0x1501 JUMP JUMPDEST PUSH2 0xCA8 SWAP2 SWAP1 PUSH2 0x1501 JUMP JUMPDEST PUSH2 0xCB2 SWAP2 SWAP1 PUSH2 0x1547 JUMP JUMPDEST DUP2 PUSH1 0x1 DUP2 MLOAD DUP2 LT PUSH2 0xCC5 JUMPI PUSH2 0xCC5 PUSH2 0x1518 JUMP JUMPDEST PUSH1 0x20 SWAP1 DUP2 MUL SWAP2 SWAP1 SWAP2 ADD ADD MSTORE PUSH1 0x64 PUSH2 0xCDD DUP4 PUSH1 0xA PUSH2 0x14F5 JUMP JUMPDEST PUSH2 0xCE8 DUP6 PUSH1 0x8 PUSH2 0x1501 JUMP JUMPDEST PUSH2 0xCF2 SWAP2 SWAP1 PUSH2 0x1501 JUMP JUMPDEST PUSH2 0xCFC SWAP2 SWAP1 PUSH2 0x1547 JUMP JUMPDEST DUP2 PUSH1 0x2 DUP2 MLOAD DUP2 LT PUSH2 0xD0F JUMPI PUSH2 0xD0F PUSH2 0x1518 JUMP JUMPDEST PUSH1 0x20 SWAP1 DUP2 MUL SWAP2 SWAP1 SWAP2 ADD ADD MSTORE PUSH1 0x64 PUSH2 0xD27 DUP4 PUSH1 0xA PUSH2 0x14F5 JUMP JUMPDEST PUSH2 0xD32 DUP6 PUSH1 0x7 PUSH2 0x1501 JUMP JUMPDEST PUSH2 0xD3C SWAP2 SWAP1 PUSH2 0x1501 JUMP JUMPDEST PUSH2 0xD46 SWAP2 SWAP1 PUSH2 0x1547 JUMP JUMPDEST DUP2 PUSH1 0x3 DUP2 MLOAD DUP2 LT PUSH2 0xD59 JUMPI PUSH2 0xD59 PUSH2 0x1518 JUMP JUMPDEST PUSH1 0x20 SWAP1 DUP2 MUL SWAP2 SWAP1 SWAP2 ADD ADD MSTORE PUSH1 0x64 PUSH2 0xD71 DUP4 PUSH1 0xA PUSH2 0x14F5 JUMP JUMPDEST PUSH2 0xD7C DUP6 PUSH1 0x6 PUSH2 0x1501 JUMP JUMPDEST PUSH2 0xD86 SWAP2 SWAP1 PUSH2 0x1501 JUMP JUMPDEST PUSH2 0xD90 SWAP2 SWAP1 PUSH2 0x1547 JUMP JUMPDEST DUP2 PUSH1 0x4 DUP2 MLOAD DUP2 LT PUSH2 0xDA3 JUMPI PUSH2 0xDA3 PUSH2 0x1518 JUMP JUMPDEST PUSH1 0x20 SWAP1 DUP2 MUL SWAP2 SWAP1 SWAP2 ADD ADD MSTORE PUSH1 0x64 PUSH2 0xDBB DUP4 PUSH1 0xA PUSH2 0x14F5 JUMP JUMPDEST PUSH2 0xDC6 DUP6 PUSH1 0x5 PUSH2 0x1501 JUMP JUMPDEST PUSH2 0xDD0 SWAP2 SWAP1 PUSH2 0x1501 JUMP JUMPDEST PUSH2 0xDDA SWAP2 SWAP1 PUSH2 0x1547 JUMP JUMPDEST DUP2 PUSH1 0x5 DUP2 MLOAD DUP2 LT PUSH2 0xDED JUMPI PUSH2 0xDED PUSH2 0x1518 JUMP JUMPDEST PUSH1 0x20 SWAP1 DUP2 MUL SWAP2 SWAP1 SWAP2 ADD ADD MSTORE PUSH1 0x64 PUSH2 0xE05 DUP4 PUSH1 0xA PUSH2 0x14F5 JUMP JUMPDEST PUSH2 0xE10 DUP6 PUSH1 0x4 PUSH2 0x1501 JUMP JUMPDEST PUSH2 0xE1A SWAP2 SWAP1 PUSH2 0x1501 JUMP JUMPDEST PUSH2 0xE24 SWAP2 SWAP1 PUSH2 0x1547 JUMP JUMPDEST DUP2 PUSH1 0x6 DUP2 MLOAD DUP2 LT PUSH2 0xE37 JUMPI PUSH2 0xE37 PUSH2 0x1518 JUMP JUMPDEST PUSH1 0x20 SWAP1 DUP2 MUL SWAP2 SWAP1 SWAP2 ADD ADD MSTORE PUSH1 0x64 PUSH2 0xE4F DUP4 PUSH1 0xA PUSH2 0x14F5 JUMP JUMPDEST PUSH2 0xE5A DUP6 PUSH1 0x3 PUSH2 0x1501 JUMP JUMPDEST PUSH2 0xE64 SWAP2 SWAP1 PUSH2 0x1501 JUMP JUMPDEST PUSH2 0xE6E SWAP2 SWAP1 PUSH2 0x1547 JUMP JUMPDEST DUP2 PUSH1 0x7 DUP2 MLOAD DUP2 LT PUSH2 0xE81 JUMPI PUSH2 0xE81 PUSH2 0x1518 JUMP JUMPDEST PUSH1 0x20 SWAP1 DUP2 MUL SWAP2 SWAP1 SWAP2 ADD ADD MSTORE PUSH1 0x64 PUSH2 0xE99 DUP4 PUSH1 0xA PUSH2 0x14F5 JUMP JUMPDEST PUSH2 0xEA4 DUP6 PUSH1 0x2 PUSH2 0x1501 JUMP JUMPDEST PUSH2 0xEAE SWAP2 SWAP1 PUSH2 0x1501 JUMP JUMPDEST PUSH2 0xEB8 SWAP2 SWAP1 PUSH2 0x1547 JUMP JUMPDEST DUP2 PUSH1 0x8 DUP2 MLOAD DUP2 LT PUSH2 0x226 JUMPI PUSH2 0x226 PUSH2 0x1518 JUMP JUMPDEST DUP4 PUSH1 0xA SUB PUSH2 0x11AC JUMPI PUSH1 0xA PUSH2 0xEDF DUP4 DUP3 PUSH2 0x14F5 JUMP JUMPDEST PUSH2 0xEEA DUP6 PUSH1 0x5 PUSH2 0x1501 JUMP JUMPDEST PUSH2 0xEF4 SWAP2 SWAP1 PUSH2 0x1501 JUMP JUMPDEST PUSH2 0xEFE SWAP2 SWAP1 PUSH2 0x1547 JUMP JUMPDEST DUP2 PUSH1 0x0 DUP2 MLOAD DUP2 LT PUSH2 0xF11 JUMPI PUSH2 0xF11 PUSH2 0x1518 JUMP JUMPDEST PUSH1 0x20 SWAP1 DUP2 MUL SWAP2 SWAP1 SWAP2 ADD ADD MSTORE PUSH1 0xA PUSH2 0xF28 DUP4 DUP3 PUSH2 0x14F5 JUMP JUMPDEST PUSH2 0xF33 DUP6 PUSH1 0x2 PUSH2 0x1501 JUMP JUMPDEST PUSH2 0xF3D SWAP2 SWAP1 PUSH2 0x1501 JUMP JUMPDEST PUSH2 0xF47 SWAP2 SWAP1 PUSH2 0x1547 JUMP JUMPDEST DUP2 PUSH1 0x1 DUP2 MLOAD DUP2 LT PUSH2 0xF5A JUMPI PUSH2 0xF5A PUSH2 0x1518 JUMP JUMPDEST PUSH1 0x20 SWAP1 DUP2 MUL SWAP2 SWAP1 SWAP2 ADD ADD MSTORE PUSH1 0xA PUSH2 0xF71 DUP4 DUP3 PUSH2 0x14F5 JUMP JUMPDEST PUSH2 0xF7C DUP6 PUSH1 0x1 PUSH2 0x1501 JUMP JUMPDEST PUSH2 0xF86 SWAP2 SWAP1 PUSH2 0x1501 JUMP JUMPDEST PUSH2 0xF90 SWAP2 SWAP1 PUSH2 0x1547 JUMP JUMPDEST DUP2 PUSH1 0x2 DUP2 MLOAD DUP2 LT PUSH2 0xFA3 JUMPI PUSH2 0xFA3 PUSH2 0x1518 JUMP JUMPDEST PUSH1 0x20 SWAP1 DUP2 MUL SWAP2 SWAP1 SWAP2 ADD ADD MSTORE PUSH1 0x64 PUSH2 0xFBB DUP4 PUSH1 0xA PUSH2 0x14F5 JUMP JUMPDEST PUSH2 0xFC6 DUP6 PUSH1 0x6 PUSH2 0x1501 JUMP JUMPDEST PUSH2 0xFD0 SWAP2 SWAP1 PUSH2 0x1501 JUMP JUMPDEST PUSH2 0xFDA SWAP2 SWAP1 PUSH2 0x1547 JUMP JUMPDEST DUP2 PUSH1 0x3 DUP2 MLOAD DUP2 LT PUSH2 0xFED JUMPI PUSH2 0xFED PUSH2 0x1518 JUMP JUMPDEST PUSH1 0x20 SWAP1 DUP2 MUL SWAP2 SWAP1 SWAP2 ADD ADD MSTORE PUSH2 0x3E8 PUSH2 0x1006 DUP4 PUSH1 0xA PUSH2 0x14F5 JUMP JUMPDEST PUSH2 0x1011 DUP6 PUSH1 0x2C PUSH2 0x1501 JUMP JUMPDEST PUSH2 0x101B SWAP2 SWAP1 PUSH2 0x1501 JUMP JUMPDEST PUSH2 0x1025 SWAP2 SWAP1 PUSH2 0x1547 JUMP JUMPDEST DUP2 PUSH1 0x4 DUP2 MLOAD DUP2 LT PUSH2 0x1038 JUMPI PUSH2 0x1038 PUSH2 0x1518 JUMP JUMPDEST PUSH1 0x20 SWAP1 DUP2 MUL SWAP2 SWAP1 SWAP2 ADD ADD MSTORE PUSH1 0x64 PUSH2 0x1050 DUP4 PUSH1 0xA PUSH2 0x14F5 JUMP JUMPDEST PUSH2 0x105B DUP6 PUSH1 0x3 PUSH2 0x1501 JUMP JUMPDEST PUSH2 0x1065 SWAP2 SWAP1 PUSH2 0x1501 JUMP JUMPDEST PUSH2 0x106F SWAP2 SWAP1 PUSH2 0x1547 JUMP JUMPDEST DUP2 PUSH1 0x5 DUP2 MLOAD DUP2 LT PUSH2 0x1082 JUMPI PUSH2 0x1082 PUSH2 0x1518 JUMP JUMPDEST PUSH1 0x20 SWAP1 DUP2 MUL SWAP2 SWAP1 SWAP2 ADD ADD MSTORE PUSH2 0x3E8 PUSH2 0x109B DUP4 PUSH1 0xA PUSH2 0x14F5 JUMP JUMPDEST PUSH2 0x10A6 DUP6 PUSH1 0x18 PUSH2 0x1501 JUMP JUMPDEST PUSH2 0x10B0 SWAP2 SWAP1 PUSH2 0x1501 JUMP JUMPDEST PUSH2 0x10BA SWAP2 SWAP1 PUSH2 0x1547 JUMP JUMPDEST DUP2 PUSH1 0x6 DUP2 MLOAD DUP2 LT PUSH2 0x10CD JUMPI PUSH2 0x10CD PUSH2 0x1518 JUMP JUMPDEST PUSH1 0x20 SWAP1 DUP2 MUL SWAP2 SWAP1 SWAP2 ADD ADD MSTORE PUSH2 0x3E8 PUSH2 0x10E6 DUP4 PUSH1 0xA PUSH2 0x14F5 JUMP JUMPDEST PUSH2 0x10F1 DUP6 PUSH1 0x16 PUSH2 0x1501 JUMP JUMPDEST PUSH2 0x10FB SWAP2 SWAP1 PUSH2 0x1501 JUMP JUMPDEST PUSH2 0x1105 SWAP2 SWAP1 PUSH2 0x1547 JUMP JUMPDEST DUP2 PUSH1 0x7 DUP2 MLOAD DUP2 LT PUSH2 0x1118 JUMPI PUSH2 0x1118 PUSH2 0x1518 JUMP JUMPDEST PUSH1 0x20 SWAP1 DUP2 MUL SWAP2 SWAP1 SWAP2 ADD ADD MSTORE PUSH1 0x64 PUSH2 0x1130 DUP4 PUSH1 0xA PUSH2 0x14F5 JUMP JUMPDEST PUSH2 0x113B DUP6 PUSH1 0x2 PUSH2 0x1501 JUMP JUMPDEST PUSH2 0x1145 SWAP2 SWAP1 PUSH2 0x1501 JUMP JUMPDEST PUSH2 0x114F SWAP2 SWAP1 PUSH2 0x1547 JUMP JUMPDEST DUP2 PUSH1 0x8 DUP2 MLOAD DUP2 LT PUSH2 0x1162 JUMPI PUSH2 0x1162 PUSH2 0x1518 JUMP JUMPDEST PUSH1 0x20 SWAP1 DUP2 MUL SWAP2 SWAP1 SWAP2 ADD ADD MSTORE PUSH1 0x64 PUSH2 0x117A DUP4 PUSH1 0xA PUSH2 0x14F5 JUMP JUMPDEST PUSH2 0x1185 DUP6 PUSH1 0x2 PUSH2 0x1501 JUMP JUMPDEST PUSH2 0x118F SWAP2 SWAP1 PUSH2 0x1501 JUMP JUMPDEST PUSH2 0x1199 SWAP2 SWAP1 PUSH2 0x1547 JUMP JUMPDEST DUP2 PUSH1 0x9 DUP2 MLOAD DUP2 LT PUSH2 0x226 JUMPI PUSH2 0x226 PUSH2 0x1518 JUMP JUMPDEST SWAP4 SWAP3 POP POP POP JUMP JUMPDEST PUSH1 0x0 DUP3 PUSH20 0xFFFFFFFFFFFFFFFFFFFFFFFFFFFFFFFFFFFFFFFF AND DUP3 PUSH1 0x40 MLOAD PUSH1 0x0 PUSH1 0x40 MLOAD DUP1 DUP4 SUB DUP2 DUP6 DUP8 GAS CALL SWAP3 POP POP POP RETURNDATASIZE DUP1 PUSH1 0x0 DUP2 EQ PUSH2 0x120D JUMPI PUSH1 0x40 MLOAD SWAP2 POP PUSH1 0x1F NOT PUSH1 0x3F RETURNDATASIZE ADD AND DUP3 ADD PUSH1 0x40 MSTORE RETURNDATASIZE DUP3 MSTORE RETURNDATASIZE PUSH1 0x0 PUSH1 0x20 DUP5 ADD RETURNDATACOPY PUSH2 0x1212 JUMP JUMPDEST PUSH1 0x60 SWAP2 POP JUMPDEST POP POP SWAP1 POP DUP1 PUSH2 0x124D JUMPI PUSH1 0x40 MLOAD PUSH32 0x3F4AB80E00000000000000000000000000000000000000000000000000000000 DUP2 MSTORE PUSH1 0x4 ADD PUSH1 0x40 MLOAD DUP1 SWAP2 SUB SWAP1 REVERT JUMPDEST POP POP POP JUMP JUMPDEST PUSH1 0x0 DUP1 PUSH1 0x0 DUP1 PUSH1 0x80 DUP6 DUP8 SUB SLT ISZERO PUSH2 0x1268 JUMPI PUSH1 0x0 DUP1 REVERT JUMPDEST DUP5 CALLDATALOAD PUSH1 0x3 DUP2 LT PUSH2 0x1277 JUMPI PUSH1 0x0 DUP1 REVERT JUMPDEST SWAP7 PUSH1 0x20 DUP7 ADD CALLDATALOAD SWAP7 POP PUSH1 0x40 DUP7 ADD CALLDATALOAD SWAP6 PUSH1 0x60 ADD CALLDATALOAD SWAP5 POP SWAP3 POP POP POP JUMP JUMPDEST PUSH1 0x0 DUP1 PUSH1 0x0 PUSH1 0x60 DUP5 DUP7 SUB SLT ISZERO PUSH2 0x12A6 JUMPI PUSH1 0x0 DUP1 REVERT JUMPDEST POP POP DUP2 CALLDATALOAD SWAP4 PUSH1 0x20 DUP4 ADD CALLDATALOAD SWAP4 POP PUSH1 0x40 SWAP1 SWAP3 ADD CALLDATALOAD SWAP2 SWAP1 POP JUMP JUMPDEST PUSH1 0x20 DUP1 DUP3 MSTORE DUP3 MLOAD DUP3 DUP3 ADD DUP2 SWAP1 MSTORE PUSH1 0x0 SWAP2 SWAP1 DUP5 DUP3 ADD SWAP1 PUSH1 0x40 DUP6 ADD SWAP1 DUP5 JUMPDEST DUP2 DUP2 LT ISZERO PUSH2 0x12F5 JUMPI DUP4 MLOAD DUP4 MSTORE SWAP3 DUP5 ADD SWAP3 SWAP2 DUP5 ADD SWAP2 PUSH1 0x1 ADD PUSH2 0x12D9 JUMP JUMPDEST POP SWAP1 SWAP7 SWAP6 POP POP POP POP POP POP JUMP JUMPDEST PUSH1 0x0 DUP1 PUSH1 0x40 DUP4 DUP6 SUB SLT ISZERO PUSH2 0x1314 JUMPI PUSH1 0x0 DUP1 REVERT JUMPDEST DUP3 CALLDATALOAD PUSH20 0xFFFFFFFFFFFFFFFFFFFFFFFFFFFFFFFFFFFFFFFF DUP2 AND DUP2 EQ PUSH2 0x1338 JUMPI PUSH1 0x0 DUP1 REVERT JUMPDEST SWAP5 PUSH1 0x20 SWAP4 SWAP1 SWAP4 ADD CALLDATALOAD SWAP4 POP POP POP JUMP JUMPDEST PUSH32 0x4E487B7100000000000000000000000000000000000000000000000000000000 PUSH1 0x0 MSTORE PUSH1 0x21 PUSH1 0x4 MSTORE PUSH1 0x24 PUSH1 0x0 REVERT JUMPDEST PUSH32 0x4E487B7100000000000000000000000000000000000000000000000000000000 PUSH1 0x0 MSTORE PUSH1 0x41 PUSH1 0x4 MSTORE PUSH1 0x24 PUSH1 0x0 REVERT JUMPDEST PUSH32 0x4E487B7100000000000000000000000000000000000000000000000000000000 PUSH1 0x0 MSTORE PUSH1 0x11 PUSH1 0x4 MSTORE PUSH1 0x24 PUSH1 0x0 REVERT JUMPDEST PUSH1 0x1 DUP2 DUP2 JUMPDEST DUP1 DUP6 GT ISZERO PUSH2 0x142C JUMPI DUP2 PUSH32 0xFFFFFFFFFFFFFFFFFFFFFFFFFFFFFFFFFFFFFFFFFFFFFFFFFFFFFFFFFFFFFFFF DIV DUP3 GT ISZERO PUSH2 0x1412 JUMPI PUSH2 0x1412 PUSH2 0x13A4 JUMP JUMPDEST DUP1 DUP6 AND ISZERO PUSH2 0x141F JUMPI SWAP2 DUP2 MUL SWAP2 JUMPDEST SWAP4 DUP5 SHR SWAP4 SWAP1 DUP1 MUL SWAP1 PUSH2 0x13D8 JUMP JUMPDEST POP SWAP3 POP SWAP3 SWAP1 POP JUMP JUMPDEST PUSH1 0x0 DUP3 PUSH2 0x1443 JUMPI POP PUSH1 0x1 PUSH2 0x14EF JUMP JUMPDEST DUP2 PUSH2 0x1450 JUMPI POP PUSH1 0x0 PUSH2 0x14EF JUMP JUMPDEST DUP2 PUSH1 0x1 DUP2 EQ PUSH2 0x1466 JUMPI PUSH1 0x2 DUP2 EQ PUSH2 0x1470 JUMPI PUSH2 0x148C JUMP JUMPDEST PUSH1 0x1 SWAP2 POP POP PUSH2 0x14EF JUMP JUMPDEST PUSH1 0xFF DUP5 GT ISZERO PUSH2 0x1481 JUMPI PUSH2 0x1481 PUSH2 0x13A4 JUMP JUMPDEST POP POP PUSH1 0x1 DUP3 SHL PUSH2 0x14EF JUMP JUMPDEST POP PUSH1 0x20 DUP4 LT PUSH2 0x133 DUP4 LT AND PUSH1 0x4E DUP5 LT PUSH1 0xB DUP5 LT AND OR ISZERO PUSH2 0x14AF JUMPI POP DUP2 DUP2 EXP PUSH2 0x14EF JUMP JUMPDEST PUSH2 0x14B9 DUP4 DUP4 PUSH2 0x13D3 JUMP JUMPDEST DUP1 PUSH32 0xFFFFFFFFFFFFFFFFFFFFFFFFFFFFFFFFFFFFFFFFFFFFFFFFFFFFFFFFFFFFFFFF DIV DUP3 GT ISZERO PUSH2 0x14EB JUMPI PUSH2 0x14EB PUSH2 0x13A4 JUMP JUMPDEST MUL SWAP1 POP JUMPDEST SWAP3 SWAP2 POP POP JUMP JUMPDEST PUSH1 0x0 PUSH2 0x11AC DUP4 DUP4 PUSH2 0x1434 JUMP JUMPDEST DUP1 DUP3 MUL DUP2 ISZERO DUP3 DUP3 DIV DUP5 EQ OR PUSH2 0x14EF JUMPI PUSH2 0x14EF PUSH2 0x13A4 JUMP JUMPDEST PUSH32 0x4E487B7100000000000000000000000000000000000000000000000000000000 PUSH1 0x0 MSTORE PUSH1 0x32 PUSH1 0x4 MSTORE PUSH1 0x24 PUSH1 0x0 REVERT JUMPDEST PUSH1 0x0 DUP3 PUSH2 0x157D JUMPI PUSH32 0x4E487B7100000000000000000000000000000000000000000000000000000000 PUSH1 0x0 MSTORE PUSH1 0x12 PUSH1 0x4 MSTORE PUSH1 0x24 PUSH1 0x0 REVERT JUMPDEST POP DIV SWAP1 JUMP INVALID LOG2 PUSH5 0x6970667358 0x22 SLT KECCAK256 JUMPI 0x5E SWAP4 LOG1 PUSH20 0xC440DDF9E8C6C3411AC7DEF61E6F05F5069D04DF MSTORE MSTORE8 PUSH5 0x597A2BC364 PUSH20 0x6F6C634300081100330000000000000000000000 "},"methodIdentifiers":{"BITMASK_LAST_INDEX()":"14d7847f","BITMASK_PURCHASER()":"00bc8164","BITPOS_LAST_INDEX()":"6967609b","calculateRewards(uint256,uint256,uint256)":"745052c0","checkUpkeepVRF(BTCLCoreFixed.Status,uint256,uint256,uint256)":"56d5d004","distributionHelper(address,uint256)":"d29c7cbe"}}}}}