{"contracts/LotterySender.sol":{"LotterySender":{"abi":[{"inputs":[{"internalType":"address","name":"_link","type":"address"},{"internalType":"address","name":"_router","type":"address"}],"stateMutability":"nonpayable","type":"constructor"},{"inputs":[{"internalType":"uint64","name":"destinationChainSelector","type":"uint64"}],"name":"DestinationChainNotWhitelisted","type":"error"},{"anonymous":false,"inputs":[{"indexed":true,"internalType":"address","name":"from","type":"address"},{"indexed":true,"internalType":"address","name":"to","type":"address"}],"name":"OwnershipTransferRequested","type":"event"},{"anonymous":false,"inputs":[{"indexed":true,"internalType":"address","name":"from","type":"address"},{"indexed":true,"internalType":"address","name":"to","type":"address"}],"name":"OwnershipTransferred","type":"event"},{"inputs":[],"name":"acceptOwnership","outputs":[],"stateMutability":"nonpayable","type":"function"},{"inputs":[{"internalType":"uint64","name":"_destinationChainSelector","type":"uint64"}],"name":"denylistChain","outputs":[],"stateMutability":"nonpayable","type":"function"},{"inputs":[],"name":"owner","outputs":[{"internalType":"address","name":"","type":"address"}],"stateMutability":"view","type":"function"},{"inputs":[{"internalType":"address","name":"to","type":"address"}],"name":"transferOwnership","outputs":[],"stateMutability":"nonpayable","type":"function"},{"inputs":[{"internalType":"uint64","name":"_destinationChainSelector","type":"uint64"}],"name":"whitelistChain","outputs":[],"stateMutability":"nonpayable","type":"function"},{"inputs":[{"internalType":"uint64","name":"","type":"uint64"}],"name":"whitelistedChains","outputs":[{"internalType":"bool","name":"","type":"bool"}],"stateMutability":"view","type":"function"}],"evm":{"bytecode":{"linkReferences":{},"object":"608060405234801561001057600080fd5b5060405161076338038061076383398101604081905261002f91610220565b33806000816100855760405162461bcd60e51b815260206004820152601860248201527f43616e6e6f7420736574206f776e657220746f207a65726f000000000000000060448201526064015b60405180910390fd5b600080546001600160a01b0319166001600160a01b03848116919091179091558116156100b5576100b58161015b565b5050600280546001600160a01b03199081166001600160a01b038681169182179093556003805490921692851692831790915560405163095ea7b360e01b815260048101929092526000196024830152915063095ea7b3906044016020604051808303816000875af115801561012f573d6000803e3d6000fd5b505050506040513d601f19601f820116820180604052508101906101539190610253565b50505061027c565b336001600160a01b038216036101b35760405162461bcd60e51b815260206004820152601760248201527f43616e6e6f74207472616e7366657220746f2073656c66000000000000000000604482015260640161007c565b600180546001600160a01b0319166001600160a01b0383811691821790925560008054604051929316917fed8889f560326eb138920d842192f0eb3dd22b4f139c87a2c57538e05bae12789190a350565b80516001600160a01b038116811461021b57600080fd5b919050565b6000806040838503121561023357600080fd5b61023c83610204565b915061024a60208401610204565b90509250929050565b60006020828403121561026557600080fd5b8151801515811461027557600080fd5b9392505050565b6104d88061028b6000396000f3fe608060405234801561001057600080fd5b50600436106100725760003560e01c80638da5cb5b116100505780638da5cb5b146100cc578063d345ac7d146100f4578063f2fde38b1461010757600080fd5b806334625dcc14610077578063763574f61461008c57806379ba5097146100c4575b600080fd5b61008a61008536600461043b565b61011a565b005b6100af61009a36600461043b565b60046020526000908152604090205460ff1681565b60405190151581526020015b60405180910390f35b61008a610162565b60005460405173ffffffffffffffffffffffffffffffffffffffff90911681526020016100bb565b61008a61010236600461043b565b610264565b61008a61011536600461046c565b6102af565b6101226102c3565b67ffffffffffffffff16600090815260046020526040902080547fffffffffffffffffffffffffffffffffffffffffffffffffffffffffffffff00169055565b60015473ffffffffffffffffffffffffffffffffffffffff1633146101e8576040517f08c379a000000000000000000000000000000000000000000000000000000000815260206004820152601660248201527f4d7573742062652070726f706f736564206f776e65720000000000000000000060448201526064015b60405180910390fd5b60008054337fffffffffffffffffffffffff00000000000000000000000000000000000000008083168217845560018054909116905560405173ffffffffffffffffffffffffffffffffffffffff90921692909183917f8be0079c531659141344cd1fd0a4f28419497f9722a3daafe3b4186f6b6457e091a350565b61026c6102c3565b67ffffffffffffffff16600090815260046020526040902080547fffffffffffffffffffffffffffffffffffffffffffffffffffffffffffffff00166001179055565b6102b76102c3565b6102c081610346565b50565b60005473ffffffffffffffffffffffffffffffffffffffff163314610344576040517f08c379a000000000000000000000000000000000000000000000000000000000815260206004820152601660248201527f4f6e6c792063616c6c61626c65206279206f776e65720000000000000000000060448201526064016101df565b565b3373ffffffffffffffffffffffffffffffffffffffff8216036103c5576040517f08c379a000000000000000000000000000000000000000000000000000000000815260206004820152601760248201527f43616e6e6f74207472616e7366657220746f2073656c6600000000000000000060448201526064016101df565b600180547fffffffffffffffffffffffff00000000000000000000000000000000000000001673ffffffffffffffffffffffffffffffffffffffff83811691821790925560008054604051929316917fed8889f560326eb138920d842192f0eb3dd22b4f139c87a2c57538e05bae12789190a350565b60006020828403121561044d57600080fd5b813567ffffffffffffffff8116811461046557600080fd5b9392505050565b60006020828403121561047e57600080fd5b813573ffffffffffffffffffffffffffffffffffffffff8116811461046557600080fdfea2646970667358221220cd5b29f5866a292e704f5b128d3aa6188a8b0f89267dc69f3726946b9e6f2adf64736f6c63430008110033","opcodes":"PUSH1 0x80 PUSH1 0x40 MSTORE CALLVALUE DUP1 ISZERO PUSH2 0x10 JUMPI PUSH1 0x0 DUP1 REVERT JUMPDEST POP PUSH1 0x40 MLOAD PUSH2 0x763 CODESIZE SUB DUP1 PUSH2 0x763 DUP4 CODECOPY DUP2 ADD PUSH1 0x40 DUP2 SWAP1 MSTORE PUSH2 0x2F SWAP2 PUSH2 0x220 JUMP JUMPDEST CALLER DUP1 PUSH1 0x0 DUP2 PUSH2 0x85 JUMPI PUSH1 0x40 MLOAD PUSH3 0x461BCD PUSH1 0xE5 SHL DUP2 MSTORE PUSH1 0x20 PUSH1 0x4 DUP3 ADD MSTORE PUSH1 0x18 PUSH1 0x24 DUP3 ADD MSTORE PUSH32 0x43616E6E6F7420736574206F776E657220746F207A65726F0000000000000000 PUSH1 0x44 DUP3 ADD MSTORE PUSH1 0x64 ADD JUMPDEST PUSH1 0x40 MLOAD DUP1 SWAP2 SUB SWAP1 REVERT JUMPDEST PUSH1 0x0 DUP1 SLOAD PUSH1 0x1 PUSH1 0x1 PUSH1 0xA0 SHL SUB NOT AND PUSH1 0x1 PUSH1 0x1 PUSH1 0xA0 SHL SUB DUP5 DUP2 AND SWAP2 SWAP1 SWAP2 OR SWAP1 SWAP2 SSTORE DUP2 AND ISZERO PUSH2 0xB5 JUMPI PUSH2 0xB5 DUP2 PUSH2 0x15B JUMP JUMPDEST POP POP PUSH1 0x2 DUP1 SLOAD PUSH1 0x1 PUSH1 0x1 PUSH1 0xA0 SHL SUB NOT SWAP1 DUP2 AND PUSH1 0x1 PUSH1 0x1 PUSH1 0xA0 SHL SUB DUP7 DUP2 AND SWAP2 DUP3 OR SWAP1 SWAP4 SSTORE PUSH1 0x3 DUP1 SLOAD SWAP1 SWAP3 AND SWAP3 DUP6 AND SWAP3 DUP4 OR SWAP1 SWAP2 SSTORE PUSH1 0x40 MLOAD PUSH4 0x95EA7B3 PUSH1 0xE0 SHL DUP2 MSTORE PUSH1 0x4 DUP2 ADD SWAP3 SWAP1 SWAP3 MSTORE PUSH1 0x0 NOT PUSH1 0x24 DUP4 ADD MSTORE SWAP2 POP PUSH4 0x95EA7B3 SWAP1 PUSH1 0x44 ADD PUSH1 0x20 PUSH1 0x40 MLOAD DUP1 DUP4 SUB DUP2 PUSH1 0x0 DUP8 GAS CALL ISZERO DUP1 ISZERO PUSH2 0x12F JUMPI RETURNDATASIZE PUSH1 0x0 DUP1 RETURNDATACOPY RETURNDATASIZE PUSH1 0x0 REVERT JUMPDEST POP POP POP POP PUSH1 0x40 MLOAD RETURNDATASIZE PUSH1 0x1F NOT PUSH1 0x1F DUP3 ADD AND DUP3 ADD DUP1 PUSH1 0x40 MSTORE POP DUP2 ADD SWAP1 PUSH2 0x153 SWAP2 SWAP1 PUSH2 0x253 JUMP JUMPDEST POP POP POP PUSH2 0x27C JUMP JUMPDEST CALLER PUSH1 0x1 PUSH1 0x1 PUSH1 0xA0 SHL SUB DUP3 AND SUB PUSH2 0x1B3 JUMPI PUSH1 0x40 MLOAD PUSH3 0x461BCD PUSH1 0xE5 SHL DUP2 MSTORE PUSH1 0x20 PUSH1 0x4 DUP3 ADD MSTORE PUSH1 0x17 PUSH1 0x24 DUP3 ADD MSTORE PUSH32 0x43616E6E6F74207472616E7366657220746F2073656C66000000000000000000 PUSH1 0x44 DUP3 ADD MSTORE PUSH1 0x64 ADD PUSH2 0x7C JUMP JUMPDEST PUSH1 0x1 DUP1 SLOAD PUSH1 0x1 PUSH1 0x1 PUSH1 0xA0 SHL SUB NOT AND PUSH1 0x1 PUSH1 0x1 PUSH1 0xA0 SHL SUB DUP4 DUP2 AND SWAP2 DUP3 OR SWAP1 SWAP3 SSTORE PUSH1 0x0 DUP1 SLOAD PUSH1 0x40 MLOAD SWAP3 SWAP4 AND SWAP2 PUSH32 0xED8889F560326EB138920D842192F0EB3DD22B4F139C87A2C57538E05BAE1278 SWAP2 SWAP1 LOG3 POP JUMP JUMPDEST DUP1 MLOAD PUSH1 0x1 PUSH1 0x1 PUSH1 0xA0 SHL SUB DUP2 AND DUP2 EQ PUSH2 0x21B JUMPI PUSH1 0x0 DUP1 REVERT JUMPDEST SWAP2 SWAP1 POP JUMP JUMPDEST PUSH1 0x0 DUP1 PUSH1 0x40 DUP4 DUP6 SUB SLT ISZERO PUSH2 0x233 JUMPI PUSH1 0x0 DUP1 REVERT JUMPDEST PUSH2 0x23C DUP4 PUSH2 0x204 JUMP JUMPDEST SWAP2 POP PUSH2 0x24A PUSH1 0x20 DUP5 ADD PUSH2 0x204 JUMP JUMPDEST SWAP1 POP SWAP3 POP SWAP3 SWAP1 POP JUMP JUMPDEST PUSH1 0x0 PUSH1 0x20 DUP3 DUP5 SUB SLT ISZERO PUSH2 0x265 JUMPI PUSH1 0x0 DUP1 REVERT JUMPDEST DUP2 MLOAD DUP1 ISZERO ISZERO DUP2 EQ PUSH2 0x275 JUMPI PUSH1 0x0 DUP1 REVERT JUMPDEST SWAP4 SWAP3 POP POP POP JUMP JUMPDEST PUSH2 0x4D8 DUP1 PUSH2 0x28B PUSH1 0x0 CODECOPY PUSH1 0x0 RETURN INVALID PUSH1 0x80 PUSH1 0x40 MSTORE CALLVALUE DUP1 ISZERO PUSH2 0x10 JUMPI PUSH1 0x0 DUP1 REVERT JUMPDEST POP PUSH1 0x4 CALLDATASIZE LT PUSH2 0x72 JUMPI PUSH1 0x0 CALLDATALOAD PUSH1 0xE0 SHR DUP1 PUSH4 0x8DA5CB5B GT PUSH2 0x50 JUMPI DUP1 PUSH4 0x8DA5CB5B EQ PUSH2 0xCC JUMPI DUP1 PUSH4 0xD345AC7D EQ PUSH2 0xF4 JUMPI DUP1 PUSH4 0xF2FDE38B EQ PUSH2 0x107 JUMPI PUSH1 0x0 DUP1 REVERT JUMPDEST DUP1 PUSH4 0x34625DCC EQ PUSH2 0x77 JUMPI DUP1 PUSH4 0x763574F6 EQ PUSH2 0x8C JUMPI DUP1 PUSH4 0x79BA5097 EQ PUSH2 0xC4 JUMPI JUMPDEST PUSH1 0x0 DUP1 REVERT JUMPDEST PUSH2 0x8A PUSH2 0x85 CALLDATASIZE PUSH1 0x4 PUSH2 0x43B JUMP JUMPDEST PUSH2 0x11A JUMP JUMPDEST STOP JUMPDEST PUSH2 0xAF PUSH2 0x9A CALLDATASIZE PUSH1 0x4 PUSH2 0x43B JUMP JUMPDEST PUSH1 0x4 PUSH1 0x20 MSTORE PUSH1 0x0 SWAP1 DUP2 MSTORE PUSH1 0x40 SWAP1 KECCAK256 SLOAD PUSH1 0xFF AND DUP2 JUMP JUMPDEST PUSH1 0x40 MLOAD SWAP1 ISZERO ISZERO DUP2 MSTORE PUSH1 0x20 ADD JUMPDEST PUSH1 0x40 MLOAD DUP1 SWAP2 SUB SWAP1 RETURN JUMPDEST PUSH2 0x8A PUSH2 0x162 JUMP JUMPDEST PUSH1 0x0 SLOAD PUSH1 0x40 MLOAD PUSH20 0xFFFFFFFFFFFFFFFFFFFFFFFFFFFFFFFFFFFFFFFF SWAP1 SWAP2 AND DUP2 MSTORE PUSH1 0x20 ADD PUSH2 0xBB JUMP JUMPDEST PUSH2 0x8A PUSH2 0x102 CALLDATASIZE PUSH1 0x4 PUSH2 0x43B JUMP JUMPDEST PUSH2 0x264 JUMP JUMPDEST PUSH2 0x8A PUSH2 0x115 CALLDATASIZE PUSH1 0x4 PUSH2 0x46C JUMP JUMPDEST PUSH2 0x2AF JUMP JUMPDEST PUSH2 0x122 PUSH2 0x2C3 JUMP JUMPDEST PUSH8 0xFFFFFFFFFFFFFFFF AND PUSH1 0x0 SWAP1 DUP2 MSTORE PUSH1 0x4 PUSH1 0x20 MSTORE PUSH1 0x40 SWAP1 KECCAK256 DUP1 SLOAD PUSH32 0xFFFFFFFFFFFFFFFFFFFFFFFFFFFFFFFFFFFFFFFFFFFFFFFFFFFFFFFFFFFFFF00 AND SWAP1 SSTORE JUMP JUMPDEST PUSH1 0x1 SLOAD PUSH20 0xFFFFFFFFFFFFFFFFFFFFFFFFFFFFFFFFFFFFFFFF AND CALLER EQ PUSH2 0x1E8 JUMPI PUSH1 0x40 MLOAD PUSH32 0x8C379A000000000000000000000000000000000000000000000000000000000 DUP2 MSTORE PUSH1 0x20 PUSH1 0x4 DUP3 ADD MSTORE PUSH1 0x16 PUSH1 0x24 DUP3 ADD MSTORE PUSH32 0x4D7573742062652070726F706F736564206F776E657200000000000000000000 PUSH1 0x44 DUP3 ADD MSTORE PUSH1 0x64 ADD JUMPDEST PUSH1 0x40 MLOAD DUP1 SWAP2 SUB SWAP1 REVERT JUMPDEST PUSH1 0x0 DUP1 SLOAD CALLER PUSH32 0xFFFFFFFFFFFFFFFFFFFFFFFF0000000000000000000000000000000000000000 DUP1 DUP4 AND DUP3 OR DUP5 SSTORE PUSH1 0x1 DUP1 SLOAD SWAP1 SWAP2 AND SWAP1 SSTORE PUSH1 0x40 MLOAD PUSH20 0xFFFFFFFFFFFFFFFFFFFFFFFFFFFFFFFFFFFFFFFF SWAP1 SWAP3 AND SWAP3 SWAP1 SWAP2 DUP4 SWAP2 PUSH32 0x8BE0079C531659141344CD1FD0A4F28419497F9722A3DAAFE3B4186F6B6457E0 SWAP2 LOG3 POP JUMP JUMPDEST PUSH2 0x26C PUSH2 0x2C3 JUMP JUMPDEST PUSH8 0xFFFFFFFFFFFFFFFF AND PUSH1 0x0 SWAP1 DUP2 MSTORE PUSH1 0x4 PUSH1 0x20 MSTORE PUSH1 0x40 SWAP1 KECCAK256 DUP1 SLOAD PUSH32 0xFFFFFFFFFFFFFFFFFFFFFFFFFFFFFFFFFFFFFFFFFFFFFFFFFFFFFFFFFFFFFF00 AND PUSH1 0x1 OR SWAP1 SSTORE JUMP JUMPDEST PUSH2 0x2B7 PUSH2 0x2C3 JUMP JUMPDEST PUSH2 0x2C0 DUP2 PUSH2 0x346 JUMP JUMPDEST POP JUMP JUMPDEST PUSH1 0x0 SLOAD PUSH20 0xFFFFFFFFFFFFFFFFFFFFFFFFFFFFFFFFFFFFFFFF AND CALLER EQ PUSH2 0x344 JUMPI PUSH1 0x40 MLOAD PUSH32 0x8C379A000000000000000000000000000000000000000000000000000000000 DUP2 MSTORE PUSH1 0x20 PUSH1 0x4 DUP3 ADD MSTORE PUSH1 0x16 PUSH1 0x24 DUP3 ADD MSTORE PUSH32 0x4F6E6C792063616C6C61626C65206279206F776E657200000000000000000000 PUSH1 0x44 DUP3 ADD MSTORE PUSH1 0x64 ADD PUSH2 0x1DF JUMP JUMPDEST JUMP JUMPDEST CALLER PUSH20 0xFFFFFFFFFFFFFFFFFFFFFFFFFFFFFFFFFFFFFFFF DUP3 AND SUB PUSH2 0x3C5 JUMPI PUSH1 0x40 MLOAD PUSH32 0x8C379A000000000000000000000000000000000000000000000000000000000 DUP2 MSTORE PUSH1 0x20 PUSH1 0x4 DUP3 ADD MSTORE PUSH1 0x17 PUSH1 0x24 DUP3 ADD MSTORE PUSH32 0x43616E6E6F74207472616E7366657220746F2073656C66000000000000000000 PUSH1 0x44 DUP3 ADD MSTORE PUSH1 0x64 ADD PUSH2 0x1DF JUMP JUMPDEST PUSH1 0x1 DUP1 SLOAD PUSH32 0xFFFFFFFFFFFFFFFFFFFFFFFF0000000000000000000000000000000000000000 AND PUSH20 0xFFFFFFFFFFFFFFFFFFFFFFFFFFFFFFFFFFFFFFFF DUP4 DUP2 AND SWAP2 DUP3 OR SWAP1 SWAP3 SSTORE PUSH1 0x0 DUP1 SLOAD PUSH1 0x40 MLOAD SWAP3 SWAP4 AND SWAP2 PUSH32 0xED8889F560326EB138920D842192F0EB3DD22B4F139C87A2C57538E05BAE1278 SWAP2 SWAP1 LOG3 POP JUMP JUMPDEST PUSH1 0x0 PUSH1 0x20 DUP3 DUP5 SUB SLT ISZERO PUSH2 0x44D JUMPI PUSH1 0x0 DUP1 REVERT JUMPDEST DUP2 CALLDATALOAD PUSH8 0xFFFFFFFFFFFFFFFF DUP2 AND DUP2 EQ PUSH2 0x465 JUMPI PUSH1 0x0 DUP1 REVERT JUMPDEST SWAP4 SWAP3 POP POP POP JUMP JUMPDEST PUSH1 0x0 PUSH1 0x20 DUP3 DUP5 SUB SLT ISZERO PUSH2 0x47E JUMPI PUSH1 0x0 DUP1 REVERT JUMPDEST DUP2 CALLDATALOAD PUSH20 0xFFFFFFFFFFFFFFFFFFFFFFFFFFFFFFFFFFFFFFFF DUP2 AND DUP2 EQ PUSH2 0x465 JUMPI PUSH1 0x0 DUP1 REVERT INVALID LOG2 PUSH5 0x6970667358 0x22 SLT KECCAK256 0xCD JUMPDEST 0x29 CREATE2 DUP7 PUSH11 0x292E704F5B128D3AA6188A DUP12 0xF DUP10 0x26 PUSH30 0xC69F3726946B9E6F2ADF64736F6C63430008110033000000000000000000 "},"methodIdentifiers":{"acceptOwnership()":"79ba5097","denylistChain(uint64)":"34625dcc","owner()":"8da5cb5b","transferOwnership(address)":"f2fde38b","whitelistChain(uint64)":"d345ac7d","whitelistedChains(uint64)":"763574f6"}}}}}