{
  "_format": "hh-sol-artifact-1",
  "contractName": "ERC20Mock",
  "sourceName": "contracts/mocks/ERC20Mock.sol",
  "abi": [
    {
      "inputs": [
        {
          "internalType": "string",
          "name": "_name",
          "type": "string"
        },
        {
          "internalType": "string",
          "name": "_symbol",
          "type": "string"
        },
        {
          "internalType": "uint8",
          "name": "__decimals",
          "type": "uint8"
        }
      ],
      "stateMutability": "nonpayable",
      "type": "constructor"
    },
    {
      "anonymous": false,
      "inputs": [
        {
          "indexed": true,
          "internalType": "address",
          "name": "owner",
          "type": "address"
        },
        {
          "indexed": true,
          "internalType": "address",
          "name": "spender",
          "type": "address"
        },
        {
          "indexed": false,
          "internalType": "uint256",
          "name": "value",
          "type": "uint256"
        }
      ],
      "name": "Approval",
      "type": "event"
    },
    {
      "anonymous": false,
      "inputs": [
        {
          "indexed": true,
          "internalType": "address",
          "name": "from",
          "type": "address"
        },
        {
          "indexed": true,
          "internalType": "address",
          "name": "to",
          "type": "address"
        },
        {
          "indexed": false,
          "internalType": "uint256",
          "name": "value",
          "type": "uint256"
        }
      ],
      "name": "Transfer",
      "type": "event"
    },
    {
      "inputs": [
        {
          "internalType": "address",
          "name": "owner",
          "type": "address"
        },
        {
          "internalType": "address",
          "name": "spender",
          "type": "address"
        }
      ],
      "name": "allowance",
      "outputs": [
        {
          "internalType": "uint256",
          "name": "",
          "type": "uint256"
        }
      ],
      "stateMutability": "view",
      "type": "function"
    },
    {
      "inputs": [
        {
          "internalType": "address",
          "name": "spender",
          "type": "address"
        },
        {
          "internalType": "uint256",
          "name": "amount",
          "type": "uint256"
        }
      ],
      "name": "approve",
      "outputs": [
        {
          "internalType": "bool",
          "name": "",
          "type": "bool"
        }
      ],
      "stateMutability": "nonpayable",
      "type": "function"
    },
    {
      "inputs": [
        {
          "internalType": "address",
          "name": "account",
          "type": "address"
        }
      ],
      "name": "balanceOf",
      "outputs": [
        {
          "internalType": "uint256",
          "name": "",
          "type": "uint256"
        }
      ],
      "stateMutability": "view",
      "type": "function"
    },
    {
      "inputs": [],
      "name": "decimals",
      "outputs": [
        {
          "internalType": "uint8",
          "name": "",
          "type": "uint8"
        }
      ],
      "stateMutability": "view",
      "type": "function"
    },
    {
      "inputs": [
        {
          "internalType": "address",
          "name": "spender",
          "type": "address"
        },
        {
          "internalType": "uint256",
          "name": "subtractedValue",
          "type": "uint256"
        }
      ],
      "name": "decreaseAllowance",
      "outputs": [
        {
          "internalType": "bool",
          "name": "",
          "type": "bool"
        }
      ],
      "stateMutability": "nonpayable",
      "type": "function"
    },
    {
      "inputs": [
        {
          "internalType": "address",
          "name": "spender",
          "type": "address"
        },
        {
          "internalType": "uint256",
          "name": "addedValue",
          "type": "uint256"
        }
      ],
      "name": "increaseAllowance",
      "outputs": [
        {
          "internalType": "bool",
          "name": "",
          "type": "bool"
        }
      ],
      "stateMutability": "nonpayable",
      "type": "function"
    },
    {
      "inputs": [
        {
          "internalType": "uint256",
          "name": "_numberOfTokens",
          "type": "uint256"
        }
      ],
      "name": "mintTokens",
      "outputs": [],
      "stateMutability": "nonpayable",
      "type": "function"
    },
    {
      "inputs": [],
      "name": "name",
      "outputs": [
        {
          "internalType": "string",
          "name": "",
          "type": "string"
        }
      ],
      "stateMutability": "view",
      "type": "function"
    },
    {
      "inputs": [],
      "name": "symbol",
      "outputs": [
        {
          "internalType": "string",
          "name": "",
          "type": "string"
        }
      ],
      "stateMutability": "view",
      "type": "function"
    },
    {
      "inputs": [],
      "name": "totalSupply",
      "outputs": [
        {
          "internalType": "uint256",
          "name": "",
          "type": "uint256"
        }
      ],
      "stateMutability": "view",
      "type": "function"
    },
    {
      "inputs": [
        {
          "internalType": "address",
          "name": "to",
          "type": "address"
        },
        {
          "internalType": "uint256",
          "name": "amount",
          "type": "uint256"
        }
      ],
      "name": "transfer",
      "outputs": [
        {
          "internalType": "bool",
          "name": "",
          "type": "bool"
        }
      ],
      "stateMutability": "nonpayable",
      "type": "function"
    },
    {
      "inputs": [
        {
          "internalType": "address",
          "name": "from",
          "type": "address"
        },
        {
          "internalType": "address",
          "name": "to",
          "type": "address"
        },
        {
          "internalType": "uint256",
          "name": "amount",
          "type": "uint256"
        }
      ],
      "name": "transferFrom",
      "outputs": [
        {
          "internalType": "bool",
          "name": "",
          "type": "bool"
        }
      ],
      "stateMutability": "nonpayable",
      "type": "function"
    }
  ],
  "bytecode": "0x60806040523480156200001157600080fd5b506040516200133a3803806200133a83398101604081905262000034916200022a565b828260036200004483826200033d565b5060046200005382826200033d565b50506005805460ff191660ff841690811790915562000091915033906200007c90600a6200051e565b6200008b90620f424062000536565b6200009a565b50505062000566565b6001600160a01b038216620000f55760405162461bcd60e51b815260206004820152601f60248201527f45524332303a206d696e7420746f20746865207a65726f206164647265737300604482015260640160405180910390fd5b806002600082825462000109919062000550565b90915550506001600160a01b038216600081815260208181526040808320805486019055518481527fddf252ad1be2c89b69c2b068fc378daa952ba7f163c4a11628f55a4df523b3ef910160405180910390a35050565b505050565b634e487b7160e01b600052604160045260246000fd5b600082601f8301126200018d57600080fd5b81516001600160401b0380821115620001aa57620001aa62000165565b604051601f8301601f19908116603f01168101908282118183101715620001d557620001d562000165565b81604052838152602092508683858801011115620001f257600080fd5b600091505b83821015620002165785820183015181830184015290820190620001f7565b600093810190920192909252949350505050565b6000806000606084860312156200024057600080fd5b83516001600160401b03808211156200025857600080fd5b62000266878388016200017b565b945060208601519150808211156200027d57600080fd5b506200028c868287016200017b565b925050604084015160ff81168114620002a457600080fd5b809150509250925092565b600181811c90821680620002c457607f821691505b602082108103620002e557634e487b7160e01b600052602260045260246000fd5b50919050565b601f8211156200016057600081815260208120601f850160051c81016020861015620003145750805b601f850160051c820191505b81811015620003355782815560010162000320565b505050505050565b81516001600160401b0381111562000359576200035962000165565b62000371816200036a8454620002af565b84620002eb565b602080601f831160018114620003a95760008415620003905750858301515b600019600386901b1c1916600185901b17855562000335565b600085815260208120601f198616915b82811015620003da57888601518255948401946001909101908401620003b9565b5085821015620003f95787850151600019600388901b60f8161c191681555b5050505050600190811b01905550565b634e487b7160e01b600052601160045260246000fd5b600181815b808511156200046057816000190482111562000444576200044462000409565b808516156200045257918102915b93841c939080029062000424565b509250929050565b600082620004795750600162000518565b81620004885750600062000518565b8160018114620004a15760028114620004ac57620004cc565b600191505062000518565b60ff841115620004c057620004c062000409565b50506001821b62000518565b5060208310610133831016604e8410600b8410161715620004f1575081810a62000518565b620004fd83836200041f565b806000190482111562000514576200051462000409565b0290505b92915050565b60006200052f60ff84168362000468565b9392505050565b808202811582820484141762000518576200051862000409565b8082018082111562000518576200051862000409565b610dc480620005766000396000f3fe608060405234801561001057600080fd5b50600436106100d45760003560e01c806370a0823111610081578063a457c2d71161005b578063a457c2d7146101ba578063a9059cbb146101cd578063dd62ed3e146101e057600080fd5b806370a082311461016757806395d89b411461019d57806397304ced146101a557600080fd5b806323b872dd116100b257806323b872dd1461012c578063313ce5671461013f578063395093511461015457600080fd5b806306fdde03146100d9578063095ea7b3146100f757806318160ddd1461011a575b600080fd5b6100e1610226565b6040516100ee9190610a4a565b60405180910390f35b61010a610105366004610adf565b6102b8565b60405190151581526020016100ee565b6002545b6040519081526020016100ee565b61010a61013a366004610b09565b6102d2565b60055460405160ff90911681526020016100ee565b61010a610162366004610adf565b6102f6565b61011e610175366004610b45565b73ffffffffffffffffffffffffffffffffffffffff1660009081526020819052604090205490565b6100e1610342565b6101b86101b3366004610b67565b610351565b005b61010a6101c8366004610adf565b61037a565b61010a6101db366004610adf565b610450565b61011e6101ee366004610b80565b73ffffffffffffffffffffffffffffffffffffffff918216600090815260016020908152604080832093909416825291909152205490565b60606003805461023590610bb3565b80601f016020809104026020016040519081016040528092919081815260200182805461026190610bb3565b80156102ae5780601f10610283576101008083540402835291602001916102ae565b820191906000526020600020905b81548152906001019060200180831161029157829003601f168201915b5050505050905090565b6000336102c681858561045e565b60019150505b92915050565b6000336102e0858285610611565b6102eb8585856106e8565b506001949350505050565b33600081815260016020908152604080832073ffffffffffffffffffffffffffffffffffffffff871684529091528120549091906102c6908290869061033d908790610c35565b61045e565b60606004805461023590610bb3565b6005546103779033906103689060ff16600a610d68565b6103729084610d77565b610957565b50565b33600081815260016020908152604080832073ffffffffffffffffffffffffffffffffffffffff8716845290915281205490919083811015610443576040517f08c379a000000000000000000000000000000000000000000000000000000000815260206004820152602560248201527f45524332303a2064656372656173656420616c6c6f77616e63652062656c6f7760448201527f207a65726f00000000000000000000000000000000000000000000000000000060648201526084015b60405180910390fd5b6102eb828686840361045e565b6000336102c68185856106e8565b73ffffffffffffffffffffffffffffffffffffffff8316610500576040517f08c379a0000000000000000000000000000000000000000000000000000000008152602060048201526024808201527f45524332303a20617070726f76652066726f6d20746865207a65726f2061646460448201527f7265737300000000000000000000000000000000000000000000000000000000606482015260840161043a565b73ffffffffffffffffffffffffffffffffffffffff82166105a3576040517f08c379a000000000000000000000000000000000000000000000000000000000815260206004820152602260248201527f45524332303a20617070726f766520746f20746865207a65726f20616464726560448201527f7373000000000000000000000000000000000000000000000000000000000000606482015260840161043a565b73ffffffffffffffffffffffffffffffffffffffff83811660008181526001602090815260408083209487168084529482529182902085905590518481527f8c5be1e5ebec7d5bd14f71427d1e84f3dd0314c0f7b2291e5b200ac8c7c3b925910160405180910390a3505050565b73ffffffffffffffffffffffffffffffffffffffff8381166000908152600160209081526040808320938616835292905220547fffffffffffffffffffffffffffffffffffffffffffffffffffffffffffffffff81146106e257818110156106d5576040517f08c379a000000000000000000000000000000000000000000000000000000000815260206004820152601d60248201527f45524332303a20696e73756666696369656e7420616c6c6f77616e6365000000604482015260640161043a565b6106e2848484840361045e565b50505050565b73ffffffffffffffffffffffffffffffffffffffff831661078b576040517f08c379a000000000000000000000000000000000000000000000000000000000815260206004820152602560248201527f45524332303a207472616e736665722066726f6d20746865207a65726f20616460448201527f6472657373000000000000000000000000000000000000000000000000000000606482015260840161043a565b73ffffffffffffffffffffffffffffffffffffffff821661082e576040517f08c379a000000000000000000000000000000000000000000000000000000000815260206004820152602360248201527f45524332303a207472616e7366657220746f20746865207a65726f206164647260448201527f6573730000000000000000000000000000000000000000000000000000000000606482015260840161043a565b73ffffffffffffffffffffffffffffffffffffffff8316600090815260208190526040902054818110156108e4576040517f08c379a000000000000000000000000000000000000000000000000000000000815260206004820152602660248201527f45524332303a207472616e7366657220616d6f756e742065786365656473206260448201527f616c616e63650000000000000000000000000000000000000000000000000000606482015260840161043a565b73ffffffffffffffffffffffffffffffffffffffff848116600081815260208181526040808320878703905593871680835291849020805487019055925185815290927fddf252ad1be2c89b69c2b068fc378daa952ba7f163c4a11628f55a4df523b3ef910160405180910390a36106e2565b73ffffffffffffffffffffffffffffffffffffffff82166109d4576040517f08c379a000000000000000000000000000000000000000000000000000000000815260206004820152601f60248201527f45524332303a206d696e7420746f20746865207a65726f206164647265737300604482015260640161043a565b80600260008282546109e69190610c35565b909155505073ffffffffffffffffffffffffffffffffffffffff8216600081815260208181526040808320805486019055518481527fddf252ad1be2c89b69c2b068fc378daa952ba7f163c4a11628f55a4df523b3ef910160405180910390a35050565b600060208083528351808285015260005b81811015610a7757858101830151858201604001528201610a5b565b5060006040828601015260407fffffffffffffffffffffffffffffffffffffffffffffffffffffffffffffffe0601f8301168501019250505092915050565b803573ffffffffffffffffffffffffffffffffffffffff81168114610ada57600080fd5b919050565b60008060408385031215610af257600080fd5b610afb83610ab6565b946020939093013593505050565b600080600060608486031215610b1e57600080fd5b610b2784610ab6565b9250610b3560208501610ab6565b9150604084013590509250925092565b600060208284031215610b5757600080fd5b610b6082610ab6565b9392505050565b600060208284031215610b7957600080fd5b5035919050565b60008060408385031215610b9357600080fd5b610b9c83610ab6565b9150610baa60208401610ab6565b90509250929050565b600181811c90821680610bc757607f821691505b602082108103610c00577f4e487b7100000000000000000000000000000000000000000000000000000000600052602260045260246000fd5b50919050565b7f4e487b7100000000000000000000000000000000000000000000000000000000600052601160045260246000fd5b808201808211156102cc576102cc610c06565b600181815b80851115610ca157817fffffffffffffffffffffffffffffffffffffffffffffffffffffffffffffffff04821115610c8757610c87610c06565b80851615610c9457918102915b93841c9390800290610c4d565b509250929050565b600082610cb8575060016102cc565b81610cc5575060006102cc565b8160018114610cdb5760028114610ce557610d01565b60019150506102cc565b60ff841115610cf657610cf6610c06565b50506001821b6102cc565b5060208310610133831016604e8410600b8410161715610d24575081810a6102cc565b610d2e8383610c48565b807fffffffffffffffffffffffffffffffffffffffffffffffffffffffffffffffff04821115610d6057610d60610c06565b029392505050565b6000610b6060ff841683610ca9565b80820281158282048414176102cc576102cc610c0656fea26469706673582212203cd0b4fb3e83ee0a6d326a9491b0defba63b7ee846cc9b42032a446b6e829ced64736f6c63430008110033",
  "linkReferences": {},
  "deployedLinkReferences": {}
}